:060000000A128A11122809
:10000800FE00030E83120313B0000408B1000A08AF
:10001800B2007F08B3000A128A11152F0A128A113A
:100028001528DA01DB018313A0308400C6300A12D8
:100038008A1534240A128A11831790308400AA3052
:100048000A128A1534240A128A118313EC30FD002F
:100058000C30FE000830FF00E83084000A128A11D4
:10006800ED270A128A115A30FD000730FE00FA30D7
:10007800FF00553084000A128A11ED2783010A1205
:100088008A11462883160313881108120A128A1542
:1000980075240A128A110A128A153C240A128A1136
:1000A8000A128A159F240A128A110A128A15BF2475
:1000B8000A128A110A128A1590240A128A110A123F
:1000C8008A15D0240A128A118316031368080A12A3
:1000D8008A156A260A128A1183160313DE01DF01C4
:1000E8005F08803AFF0080307F02031D7D2864305E
:1000F8005E0203189D28413083160313D100EE30A9
:10010800D000D00B8528D10B85280000013083163C
:100118000313DE070318DF0A0030DF075F08803AA1
:10012800FF0080307F02031D9B2864305E02031CA1
:100138007F2883120313081283160313E001E101D9
:100148006108803AFF0080307F02031DAD286430CB
:1001580060020318CD28413083160313D100EE3016
:10016800D000D00BB528D10BB5280000013083167C
:100178000313E0070318E10A0030E1076108803A39
:10018800FF0080307F02031DCB2864306002031C0F
:10019800AF2883120313081683160313E201E30141
:1001A8006308803AFF0080307F02031DDD28643039
:1001B80062020318FD28413083160313D100EE3084
:1001C800D000D00BE528D10BE528000001308316BC
:1001D8000313E2070318E30A0030E3076308803AD1
:1001E800FF0080307F02031DFB2864306202031C7D
:1001F800DF2883120313081283160313E401E501B1
:100208006508803AFF0080307F02031D0D296430A5
:10021800640203182D29413083160313D100EE30F0
:10022800D000D00B1529D10B1529000001308316F9
:100238000313E4070318E50A0030E5076508803A68
:10024800FF0080307F02031D2B2964306402031CE9
:100258000F2983120313081683160313E601E70117
:100268006708803AFF0080307F02031D3D29643013
:10027800660203185D29413083160313D100EE305E
:10028800D000D00B4529D10B452900000130831639
:100298000313E6070318E70A0030E7076708803A00
:1002A800FF0080307F02031D5B2964306602031C57
:1002B8003F29831203130812010883160313D00081
:1002C800D101500883120313B40083160313510895
:1002D80083120313B5000A128A1560240A128A11C0
:1002E800831603136A08D000D10150088312031340
:1002F800C80083160313510883120313C9000A1296
:100308008A15AB260A128A11831203134208CB00FE
:100318004108CA000A128A153D270A128A11831257
:100328000313480883160313D200831203134908E2
:1003380083160313D3006B085207D4005408A40093
:100348000A128A158A270A128A114C308316031357
:100358002306031DA9290130D0005008AB072B083C
:100368002406031DEA2A831203131F1504300A12F8
:100378008A1190270A128A11831603132708D000BE
:100388005008A5004130D100EE30D000D00BCA296A
:10039800D10BCA29000005300A128A1190270A12C7
:1003A8008A11831603132708D0005008A80041308B
:1003B800D100EE30D000D00BDF29D10BDF290000AF
:1003C80006300A128A1190270A128A11831603131B
:1003D8002708D0005008A2004130D100EE30D000EC
:1003E800D00BF429D10BF429000002300A128A112B
:1003F80090270A128A11831603132708D000500881
:10040800A6004130D100EE30D000D00B092AD10B24
:10041800092A000001300A128A1190270A128A114B
:10042800831603132708D0005008A9004130D100D3
:10043800EE30D000D00B1E2AD10B1E2A000000304F
:100448000A128A1190270A128A11831603132708A1
:10045800D0005008AA006908D000D10150088312C2
:100468000313C20083160313510883120313C30036
:1004780083160313210883120313C500831603137D
:10048800200883120313C400831603132208D20022
:10049800D301520883120313C600831603135308AB
:1004A80083120313C700831603132808D400D50149
:1004B800540883120313C8008316031355088312C4
:1004C8000313C900831603132508D600D70156085D
:1004D80083120313CA0083160313570883120313E6
:1004E800CB00831603132608D800D90158088312B5
:1004F8000313CC0083160313590883120313CD008A
:10050800831603132908DA00DB015A088312031340
:10051800CE00831603135B0883120313CF008316E0
:1005280003132A08DC00DD015C0883120313D000E2
:10053800831603135D0883120313D10013300A12C4
:100548008A11F9220A128A11413083160313D10045
:10055800EE30D000D00BAE2AD10BAE2A00004D30C1
:100568000A128A11F9220A128A1183160313AB019F
:100578006A08D000D101500883120313C8008316FB
:100588000313510883120313C9000A128A15AB26F4
:100598000A128A11831203134208CB004108CA00C9
:1005A8000A128A153D270A128A1183120313480872
:1005B80083160313D2008312031349088316031307
:1005C800D3006B085207D4005408A4008312031305
:1005D8005A1CF22A831203138815F52A831203136F
:1005E800881183160313A301A92983160313CE00C8
:1005F800423083120313D200520883160313C70034
:10060800013083160313CE07FF304E0784000A1209
:100618008A1500200A128A1183120313D200520885
:1006280083160313CF004F080319080025304F061F
:100638000319252B4F080A128A1514240A128A1145
:10064800042B83160313CC01CD01CB01342B4B159E
:10065800013083120313D200520883160313CE0706
:100668004E0884000A128A1500200A128A11303AAC
:1006780003192B2B3F2B4E0884000A128A150020E1
:100688000A128A110A128A15AF240A128A11031C47
:10069800B32B83160313CC01CD010A308312031345
:1006A800B4000030B500831603134D0883120313FA
:1006B800B700831603134C0883120313B6000A12FB
:1006C8008A1526250A128A11831203133508831600
:1006D8000313CD0083120313340883160313CC00CD
:1006E8004E0884000A128A1500200A128A11D03E88
:1006F80083120313D200FF3003180030D3005208CE
:1007080083160313CC070318CD0A83120313530867
:1007180083160313CD07013083120313D200520846
:1007280083160313CE074E0884000A128A15002088
:100738000A128A110A128A15AF240A128A11031C96
:10074800B32B512B83160313CB17CD2BC030831239
:100758000313D200520883160313CB04CD2B0130A8
:1007680083160313CE07FF304E0784000A128A153A
:1007780000200A128A11CF00003A0319452D583A71
:100788000319A62B2D3A0319AA2B0D3A0319A62BE8
:10079800042B4708840083130008C900840A000852
:1007A800CA00023083120313D200520883160313BF
:1007B800C7073E2CCF01CF0A05304F060319472C37
:1007C8004F0883120313D2005207013E84000A1215
:1007D8008A1500200A128A11D3000A128A150020ED
:1007E8000A128A11D4005408831603134A02031DFF
:1007F800032C831203135308831603134902031CA3
:10080800472C013083120313D200520883160313B6
:10081800CF07E02BCF01CF0A04304F060319472C2E
:100828004F0883120313D20052070B3E84000A12AA
:100838008A1500200A128A11D3000A128A1500208C
:100848000A128A11D4005408831603134A02031D9E
:10085800332C831203135308831603134902031C12
:10086800472C013083120313D20052088316031356
:10087800CF07102C4B08C039803A03190E2C403A88
:100888000319DE2B472C4F0883120313D200D30120
:10089800D21BD3035308803AD400831603134D08A0
:1008A800803A831203135402031D602C831603132A
:1008B8004C088312031352020318782C831603136F
:1008C8004F0883120313D200D301D21BD30352085B
:1008D80083160313CC0283120313530883160313DE
:1008E800031CCD03CD027C2C83160313CC01CD0150
:1008F8004B1D912C4C084D040319A72C30300A12BB
:100908008A1514240A128A11FF3083160313CC07A0
:100918000318CD0AFF30CD077E2C4C084D0403196F
:10092800A72C20300A128A1514240A128A11FF30C3
:1009380083160313CC070318CD0AFF30CD074C08E4
:100948004D04031D952C4F0883120313D20052083F
:1009580083160313C800302D0A3083120313BC001A
:100968000030BD0083160313480883120313D20016
:100978005207013E84000A128A1500200A128A11C1
:10098800B4000A128A1500200A128A11B5008316CB
:1009980003134A0883120313B70083160313490885
:1009A80083120313B6000A128A15EB250A128A115C
:1009B800831203133508BF003408BE000A128A15D3
:1009C8007B250A128A11831203133C08303ED30098
:1009D8005308272D480883120313D20052070B3EF1
:1009E80084000A128A1500200A128A11B4000A1219
:1009F8008A1500200A128A11B500831603134A08C3
:100A080083120313B70083160313490883120313D1
:100A1800B6000A128A15EB250A128A1183120313EB
:100A280034080F39D300530883160313C600460849
:100A3800393E84000A128A1500200A128A1183128C
:100A48000313D200520883160313CF004F080A126B
:100A58008A1514240A128A11FF3083120313D20054
:100A6800520883160313C807480A0319042B4B08B6
:100A7800C039803A0319EE2C403A0319B02C2A2DBC
:100A88002A2D080083120313A4007030A000200848
:100A9800A500013083120313A407FF302407840044
:100AA8000A128A1500200A128A11A0002008AC0038
:100AB8002C080319080025302C0603196A2D2C0868
:100AC8000A128A150C240A128A114D2D8312031357
:100AD800AA01AB01A701752D27150130A000200838
:100AE800A407240884000A128A1500200A128A1111
:100AF800303A0319702D802D240884000A128A15B3
:100B080000200A128A110A128A1582240A128A11EE
:100B1800031CD62D83120313AA01AB010A30F0007F
:100B28000030F100831203132B08F3002A08F200A7
:100B38000A128A1505250A128A11710883120313ED
:100B4800AB007008AA00240884000A128A15002045
:100B58000A128A11D03EA000FF3003180030A1000D
:100B68002008AA070318AB0A2108AB070130A00028
:100B78002008A407240884000A128A1500200A12F3
:100B88008A110A128A1582240A128A11031CD62D88
:100B9800922D83120313A717F02DC030A000200850
:100BA800A704F02D013083120313A407FF30240794
:100BB80084000A128A1500200A128A11AC00003A31
:100BC8000319142F583A0319CD2D2D3A0319D12D95
:100BD8000D3A0319CD2D4D2D2508840083130008E7
:100BE800A800840A0008A9000230A0002008A50770
:100BF800452EAC01AC0A05302C0603194E2E2C08E4
:100C0800A0002007013E84000A128A1500200A125B
:100C18008A11A1000A128A1500200A128A11A2005C
:100C280022082902031D1A2E21082802031C4E2E11
:100C38000130A0002008AC07FF2DAC01AC0A04303D
:100C48002C0603194E2E2C08A00020070B3E84000A
:100C58000A128A1500200A128A11A1000A128A159E
:100C680000200A128A11A20022082902031D3E2E22
:100C780021082802031C4E2E0130A0002008AC07D2
:100C8800232E2708C039803A0319212E403A031928
:100C9800FD2D4E2E2C08A000A101A01BA1032108A8
:100CA800803AA2002B08803A2202031D5D2E2A08F2
:100CB800200203186D2E831203132C08A000A10133
:100CC800A01BA1032008AA022108031CAB03AB0246
:100CD800712E83120313AA01AB01271D862E2A0841
:100CE8002B0403199C2E30300A128A150C240A1280
:100CF8008A11FF3083120313AA070318AB0AFF30C7
:100D0800AB07732E2A082B0403199C2E20300A12D5
:100D18008A150C240A128A11FF3083120313AA07BA
:100D28000318AB0AFF30AB072A082B04031D8A2ED1
:100D38002C08A0002008A600012F0A30F800003077
:100D4800F9002608A0002007013E84000A128A152F
:100D580000200A128A11F0000A128A1500200A12CD
:100D68008A11F1002908F3002808F2000A128A15EE
:100D7800AF250A128A117108FB007008FA000A12DE
:100D88008A1549250A128A117808303E83120313FE
:100D9800A1002108FA2E2608A00020070B3E840097
:100DA8000A128A1500200A128A11F0000A128A15FE
:100DB80000200A128A11F1002908F3002808F2001D
:100DC8000A128A15AF250A128A1170080F39831280
:100DD8000313A1002108A3002308393E84000A1246
:100DE8008A1500200A128A11A0002008AC002C08DD
:100DF8000A128A150C240A128A11FF30831203136F
:100E0800A0002008A607260A03194D2D2708C03977
:100E1800803A0319CF2E403A0319A12EFB2EFB2E40
:100E280008008C1E6D2F18191B2F981C1E2F1812C6
:100E3800DA1418161A08AD002D08D9000D30590615
:100E4800031D3F2F5B08AC3E840083138001AC3048
:100E5800AD002D08F00090300A128A15EA240A1213
:100E68008A114A300A128A1146250A128A118312F7
:100E78000313DB016D2F19305B020318652F19303E
:100E8800F0000030F1005B08AD00AE012D08F20063
:100E98002E08F3000A128A15F2260A128A1170081F
:100EA80083120313AF002F08DB005908AD005B085D
:100EB800AC3E84002D08831380000130AD002D085E
:100EC800DB0719305B06031D6D2F0130AD002D08BF
:100ED800DB070C1F782F1E0883160313A1001E08BA
:100EE800A000831203130C130B1D852F0130AD00D6
:100EF8002D0883160313A307013083120313DA06A0
:100F08000B113308FF0032088A0031088400300EC4
:100F18008300FE0E7E0E090083120313B6000A1228
:100F28008A1545240A128A110A128A1524240A12DB
:100F38008A110A128A1545240A128A11D0300A1217
:100F48008A1569240A128A110A128A1545240A1276
:100F58008A118312031336080A128A1569240A12A1
:100F68008A110A128A1545240A128A110A128A1548
:100F78001C240A128A110A128A1545240A128A1197
:100F8800D1300A128A1569240A128A110A128A159E
:100F980045240A128A110A128A154E240A128A1145
:100FA80083120313B500350883160313A7000A122A
:100FB8008A1545240A128A110A128A1557240A1218
:100FC8008A110A128A152C2408007E088A007F08D4
:100FD8008200E9270A128A118000840A04087D0623
:100FE80003190034FF0A0319FE0AED2F01340034F7
:060FF800003400345834FF
:1010000008308A000408840A82070034013400345E
:101010000A34003464340034E834033410342734A0
:1010200001340034103400340034013400341034FE
:10103000253475342634253475342634323430342E
:1010400025343034323458342D342534303432346D
:1010500058342D3425343034323458342034253447
:101060003034323458343A3425343034323458340D
:101070003A34253430343234583400343034313456
:101080003234333434343534363437343834393414
:1010900041344234433444344534463400340A3411
:0810A0000D3400340A34003461
:1018100001341C340A340534F000831203130C1E07
:101820000D2C70089900080083120313B4000C1EDD
:10183000172C34089900080083160313911483129F
:101840008C1D1F2C8C110800831603131114831296
:101850008C1D272C8C11080083160313111583127D
:101860008C1D2F2C8C11080064008001840A040652
:10187000031900340406352C831203130C1383164A
:1018800003130C178B170B1708008316031311088B
:101890001F39031D452C141D0800452C8316031306
:1018A000911583128C1D512C8C111308080083167E
:1018B00003139116111683128C1D5B2C8C110800DA
:1018C000831203133408D5003508D600D701D80198
:1018D000080083120313B400340893008C1D6E2C8F
:1018E0008C11831603131108080083160313811249
:1018F000011281110115811401140B118B168B1724
:101900000B170800F100F0013A30710203188E2C19
:1019100030307102031C8E2CF001F00A700C0800AC
:10192000831603130C12831203130C128316031372
:101930008C16831203138C120B178B17080083125B
:1019400003131F14831603139F179F111F159F1056
:101950001F141F13831203139F171F1308008312F2
:101960000313B500B4013A3035020318BD2C3030F2
:101970003502031CBD2CB401B40A340C08008316D4
:1019800003139813181398161812181583120313BB
:10199000981718131816813083160313990008003E
:1019A0008316031307168715313093008312031330
:1019B0008C118316031394019417141383120313C9
:1019C00094131413941214129415141194101410E7
:1019D00094160800F2007208F1007108F300700814
:1019E000840083130008F1007308840071088317D2
:1019F00080000008031908000130F1007108F307A6
:101A00000130F1007108F007EF2CF401F501701CB2
:101A10000F2D7208F4070318F50A7308F507013053
:101A20000310F20DF30DFF3E031D102D01300310C6
:101A3000F10CF00CFF3E031D172D70087104031DFF
:101A4000072D7508F1007408F000080083120313D5
:101A5000B801B901341C322D3608B8070318B90A89
:101A60003708B90701300310B60DB70DFF3E031D4F
:101A7000332D01300310B50CB40CFF3E031D3A2D7D
:101A800034083504031D2A2D3908B5003808B40080
:101A90000800780879040319762DFD01FD0AF91B69
:101AA0005D2D01300310F80DF90DFF3E031D522D81
:101AB0000130FC007C08FD074F2D79087B02031DD7
:101AC000632D78087A02031C6B2D7808FA027908D6
:101AD000031CFB03FB0201300310F90CF80CFF3E62
:101AE000031D6C2D0130FD02031D5D2D7B08F900E7
:101AF0007A08F8000800831203133C083D04031918
:101B0000AA2DC101C10ABD1B912D01300310BC0DCE
:101B1000BD0DFF3E031D862D0130C0004008C107EA
:101B2000832D3D083F02031D972D3C083E02031CF8
:101B30009F2D3C08BE023D08031CBF03BF020130BD
:101B40000310BD0CBC0CFF3E031DA02D0130C102D3
:101B5000031D912D3F08BD003E08BC000800F501A3
:101B6000F601700871040319E62DF701F70AF11B5D
:101B7000C52D01300310F00DF10DFF3E031DBA2DF0
:101B80000130F4007408F707B72D01300310F50D8C
:101B9000F60DFF3E031DC62D71087302031DD22DE5
:101BA00070087202031CDB2D7008F2027108031C1E
:101BB000F303F302751401300310F10CF00CFF3E37
:101BC000031DDC2D0130F702031DC52D7608F10041
:101BD0007508F000080083120313B901BA01340834
:101BE00035040319242EBB01BB0AB51B032E01309B
:101BF0000310B40DB50DFF3E031DF82D0130B800E4
:101C00003808BB07F52D01300310B90DBA0DFF3EA2
:101C1000031D042E35083702031D102E340836022A
:101C2000031C192E3408B6023508031CB703B7028B
:101C3000391401300310B50CB40CFF3E031D1A2EED
:101C40000130BB02031D032E3A08B5003908B40069
:101C50000800003083120313C0000030BF000030C2
:101C6000BE000030BD00341C492E3808BD073908BD
:101C700003110318013E031DBE073A0803110318A0
:101C8000013E031DBF073B0803110318013E031D5E
:101C9000C0070130BC000310B80DB90DBA0DBB0D63
:101CA000BC0B4B2E01300310B70CB60CB50CB40CAA
:101CB000FF3E031D532E3708360435043404031D3C
:101CC000332E4008B7003F08B6003E08B5003D0877
:101CD000B400080083120313B4003408031D742EEB
:101CE0009F121F129F1108003403031D7B2E9F12A9
:101CF0001F129F15080002303406031D832E9F1209
:101D00001F169F11080003303406031D8B2E9F12EF
:101D10001F169F15080004303406031D932E9F16CE
:101D20001F129F11080005303406031D9B2E9F16BD
:101D30001F129F15080006303406031DA32E9F16A0
:101D40001F169F11080007303406031D08009F1658
:101D50001F169F150800831203135808B700570871
:101D6000B6005608B5005508B4004130BB00C63077
:101D7000BA004E30B9006D30B8000A128A15292613
:101D80000A128A15831203133708D8003608D700C1
:101D90003508D6003408D5003930D507303003185F
:101DA0003130D607003003180130D7070030031850
:101DB0000130D8075508C3005608C4005708C500AD
:101DC0005808C6001030C700460DC60CC50CC40C20
:101DD000C30CC70BE42EFF304305C1007F30440520
:101DE000C2000800F601F31FFC2EF209F309F20A03
:101DF0000319F30AF601F60AF11F032FF009F1099E
:101E0000F00A0319F10A700871040319302FF50163
:101E1000F50AF11B172F01300310F00DF10DFF3EF5
:101E2000031D0C2F0130F4007408F507092F710809
:101E30007302031D1D2F70087202031C252F7008EA
:101E4000F2027108031CF303F30201300310F10CDA
:101E5000F00CFF3E031D262F0130F502031D172F46
:101E600076080319382FF209F309F20A0319F30A65
:101E70007308F1007208F000080083120313CE010A
:101E8000CB1F492FCA09CB09CA0A0319CB0ACE01B5
:101E9000CE0AC91F502FC809C909C80A0319C90A9F
:101EA0004808490403197D2FCD01CD0AC91B642FB1
:101EB00001300310C80DC90DFF3E031D592F01301D
:101EC000CC004C08CD07562F49084B02031D6A2F42
:101ED00048084A02031C722F4808CA024908031C1A
:101EE000CB03CB0201300310C90CC80CFF3E031D0D
:101EF000732F0130CD02031D642F4E080319852F67
:101F0000CA09CB09CA0A0319CB0A4B08C9004A08F7
:101F1000C80008000A128A1545240A128A150A12F6
:101F20008A1524240A128A150A128A1545240A12CF
:101F30008A15D0300A128A1569240A128A150A12E3
:101F40008A1545240A128A1500300A128A15692456
:101F50000A128A150A128A1545240A128A150030B7
:101F60000A128A1569240A128A150A128A1545244A
:101F70000A128A1530300A128A1569240A128A1543
:101F80000A128A1545240A128A1514300A128A1573
:101F900069240A128A150A128A1545240A128A151A
:101FA00004300A128A1569240A128A150A128A153F
:101FB00045240A128A1522300A128A1569240A1247
:101FC0008A150A128A1545240A128A1501300A1246
:101FD0008A1569240A128A150A128A1545240A12DA
:101FE0008A1516300A128A1569240A128A150A12ED
:101FF0008A1545240A128A150A128A152C2408000B
:02400E003AFF77
:00000001FF
