:040000000BEF00F012
:100008004A82FACF1FF0FBCF20F0BAED07F0B6EF27
:0200180009F0ED
:100800000001000A006400E8031027010010000046
:100810000100102575262575263230253032582DD9
:10082000253032582D2530325820253032583A257F
:100830003032583A25303258003031323334353680
:10084000373839414243444546000A0D000A00004A
:100850006E0E0001836F000E0001846F87D1250E9C
:1008600000018B19D8B405D000018B5103EC0BF0BB
:100870007DD1000E00018A6F000E896F000E00010D
:10088000886F05D00001888500016C4B6D2B6CC012
:10089000F6FF6DC0F7FF0800F550300AD8B4F2D764
:1008A0006CC0F6FF6DC0F7FF0800F55082EC0AF04F
:1008B000D8A048D0000E00018A6F000E896F89C051
:1008C00060F08AC061F0000E0001636F0A0E626F73
:1008D00050EC0AF060C089F061C08AF0D00E0001CF
:1008E0007E6FFF0E00017F6F6CC0F6FF6DC0F7FFDB
:1008F0000800F5500001806F816B00017E510001FE
:10090000802700017F5100018123000180510001F7
:1009100089270001815100018A2300016C4B6D2B56
:100920006CC0F6FF6DC0F7FF0800F55082EC0AF0CE
:10093000D8A008D0C4D70001888F1DD0C00E0001F8
:10094000881319D06CC0F6FF6DC0F7FF00016C4B27
:100950006D2B0800F5CF8BF000018B51000AD8B445
:100960001200580AD8B4E7D72D0AD8B4E7D70D0A31
:10097000D8B4E1D7FBD083C0D9FF84C0DAFFDECF83
:1009800086F0DDCF87F0020E00018327000E84235E
:100990003CD0010E00018B6F050E00018B19D8B4FD
:1009A0003DD000018B51020D010EF324F66E080EAE
:1009B000F420F76E0900F5500001865D0900F5503E
:1009C00000018759D8A02AD000018B2BE5D7010E52
:1009D00000018B6F040E00018B19D8B41FD00001E9
:1009E0008B51020D0B0EF324F66E080EF420F76EF9
:1009F0000900F5500001865D0900F5500001875996
:100A0000D8A00CD000018B2BE5D700018851C00B7A
:100A1000800AD8B4DCD7400AD8B4BBD7800E000116
:100A20008BBF7F0E00017E6F0001895100018B5D3D
:100A300000018A51800A00017E59D8B00BD0000114
:100A40008B510001895F000E00018BBFFF0E00017A
:100A50008A5B05D0000E00018A6F000E896F0001CD
:100A600088A50ED00001895100018A11D8B41BD08D
:100A7000300E03EC0BF000018907D8A08A07F2D7EB
:100A80000001895100018A11D8B40DD0200E03EC69
:100A90000BF000018907D8A08A07000189510001E5
:100AA0008A11D8A4F3D78BC085F05AD000018551A4
:100AB000020D010EF324F66E080EF420F76E090005
:100AC000F5CF62F00A00F5CF63F086C060F087C012
:100AD00061F0DBEC08F060C067F061C068F0000E08
:100AE00000016A6F0A0E696F85EC09F00001675119
:100AF000300F00018B6F30D086C060F087C061F08E
:100B000000018551020D0B0EF324F66E080EF42041
:100B1000F76E0900F5CF62F00A00F5CF63F0DBEC69
:100B200008F0000160510F0B0001826F000182513B
:100B3000010D390EF324F66E080EF420F76E08004E
:100B4000F5CF8BF009D000018851C00B800AD8B4D2
:100B5000D3D7400AD8B4AAD700018B5103EC0BF0CD
:100B60000001850700018529D8A4EDD76CC0F6FFE8
:100B70006DC0F7FF00016C4B6D2B0800F5CF8BF0BB
:100B800000018B51D8B412006AD60F0E146E000EFD
:100B9000156E41D1250E1C18D8B404D01C501DEC84
:100BA0000BF039D1000E1B6E000E1A6E000E176E80
:100BB00003D017840D4A0E2A0DC0F6FF0EC0F7FFB2
:100BC0000800F550300AD8B4F4D70DC0F6FF0EC0B7
:100BD000F7FF0800F550BBEC0AF0D8A038D0000EA3
:100BE0001B6E000E1A6E1AC001F01BC002F0000E40
:100BF000046E0A0E036E97EC0AF001C01AF002C0F0
:100C00001BF0D00E0F6EFF0E106E0DC0F6FF0EC063
:100C1000F7FF0800F550116E126A0F5011261050A0
:100C2000122211501A2612501B220D4A0E2A0DC0F4
:100C3000F6FF0EC0F7FF0800F550BBEC0AF0D8A095
:100C400006D0D1D7178E1AD0C00E171217D00DC0EC
:100C5000F6FF0EC0F7FF0D4A0E2A0800F5CF1CF074
:100C60001C50000AD8B41200580AD8B4EBD72D0A89
:100C7000D8B4EAD70D0AD8B4E5D7CDD014C0D9FF7F
:100C800015C0DAFFDECF18F0DDCF19F0020E142602
:100C9000000E152230D0010E1C6E050E1C18D8B4A3
:100CA00032D01C50020D010EF324F66E080EF42013
:100CB000F76E0900F550185C0900F5501958D8A0D6
:100CC00022D01C2AEAD7010E1C6E040E1C18D8B4C0
:100CD0001AD01C50020D0B0EF324F66E080EF420F1
:100CE000F76E0900F550185C0900F5501958D8A0A6
:100CF0000AD01C2AEAD71750C00B800AD8B4E3D711
:100D0000400AD8B4C8D7800E1CBE7F0E0F6E1A5092
:100D10001C5C1B50800A0F58D8B007D01C501A5EBC
:100D2000000E1CBEFF0E1B5A04D0000E1B6E000EE0
:100D30001A6E17A40BD01A501B10D8B415D0300E51
:100D40001DEC0BF01A06D8A01B06F5D71A501B1085
:100D5000D8B40AD0200E1DEC0BF01A06D8A01B0642
:100D60001A501B10D8A4F6D71CC016F050D016503D
:100D7000020D010EF324F66E080EF420F76E090042
:100D8000F5CF03F00A00F5CF04F018C001F019C048
:100D900002F0DFEC09F001C008F002C009F0000E1B
:100DA0000B6E0A0E0A6E2FEC0AF00850300F1C6E04
:100DB0002BD018C001F019C002F01650020D0B0E16
:100DC000F324F66E080EF420F76E0900F5CF03F059
:100DD0000A00F5CF04F0DFEC09F001500F0B136EA1
:100DE0001350010D390EF324F66E080EF420F76E41
:100DF0000800F5CF1CF008D01750C00B800AD8B4FB
:100E0000D8D7400AD8B4B3D71C501DEC0BF0160647
:100E10001628D8A4F1D70DC0F6FF0EC0F7FF0D4A73
:100E20000E2A0800F5CF1CF01C50D8B41200B2D620
:100E30009596CAEC0AF032EC0BF0D7EC0AF0E4EC31
:100E40000AF00AEC0BF0AAEC0AF00001B15158ECE0
:100E500008F0C2824FEC09F0D58E1E0E00019619E3
:100E6000D8A4FBD7040E08EC0AF092C090F0410E13
:100E700000018C6FEE0EE82EFED78C2FFCD700D031
:100E8000050E08EC0AF092C093F0410E00018C6F41
:100E9000EE0EE82EFED78C2FFCD700D0060E08EC05
:100EA0000AF092C08FF0410E00018C6FEE0EE82E1A
:100EB000FED78C2FFCD700D0020E08EC0AF092C0AF
:100EC00091F0410E00018C6FEE0EE82EFED78C2FB4
:100ED000FCD700D0010E08EC0AF092C094F0410E4D
:100EE00000018C6FEE0EE82EFED78C2FFCD700D0C1
:100EF000000E08EC0AF092C095F0130E00016C6F22
:100F0000080E00016D6FB2C06EF000016F6B8DC0F6
:100F100070F08EC071F08FC072F00001736B93C0DF
:100F200074F00001756B90C076F00001776B91C092
:100F300078F00001796B94C07AF000017B6B95C06A
:100F40007CF000017D6B28EC04F0410E00018C6FF9
:100F5000EE0EE82EFED78C2FFCD700D04D0E0001F0
:100F60006C6F080E00016D6F28EC04F0000E00019C
:100F7000966F73D70600E9CF21F0EACF22F0E1CFD8
:100F800023F0E2CF24F0D9CF25F0DACF26F0F3CF4B
:100F900027F0F4CF28F0F6CF29F0F7CF2AF0F8CFDA
:100FA0002BF0F5CF2CF09EAA47D0ABB402D0ABA269
:100FB00003D0AB984882AB88AECF49F00D0E4918EC
:100FC000D8A41DD02D50010D2E0EF324D96E000E85
:100FD000F420DA6E000EDF6E970E016E000E026EC8
:100FE0002E0E036E000E046E6BEC0AF04A0E0D6EB0
:100FF000080E0E6EC5EC05F0000E2D6E1DD0190EFC
:101000002D6016D02DC001F0026A000E046E190E7C
:10101000036E17EC09F001502D6E2D50010D2E0EB0
:10102000F324D96E000EF420DA6E49C0DFFF2D2ABA
:10103000190E2D18D8B42D2A9EAC0DD0C4501E6E9A
:101040001D6AC3501D2400018D6F000E1E2000017B
:101050008E6FC2829E9CF2A40DD00001962B48B0E8
:1010600002D0488001D0489048A002D0838601D0A9
:101070008396F2942CC0F5FF2BC0F8FF2AC0F7FF2F
:1010800029C0F6FF28C0F4FF27C0F3FF26C0DAFF0F
:1010900025C0D9FF24C0E2FF23C0E1FF22C0EAFF40
:1010A00021C0E9FF20C0FBFF1FC0FAFF4A921100D8
:1010B0000001606F000160510001D8A405D0C29A00
:1010C000C298C296C294120000016005D8A405D04F
:1010D000C29AC298C296C2841200020E0001601920
:1010E000D8A405D0C29AC298C286C2941200030E38
:1010F00000016019D8A405D0C29AC298C286C284E1
:101100001200040E00016019D8A405D0C29AC2884A
:10111000C296C2941200050E00016019D8A405D031
:10112000C29AC288C296C2841200060E00016019DB
:10113000D8A405D0C29AC288C286C2941200070EF3
:1011400000016019D8A405D0C29AC288C286C284A0
:101150001200080E00016019D8A405D0C28AC298F6
:10116000C296C2941200090E00016019D8A405D0DD
:10117000C28AC298C296C28412000A0E0001601987
:10118000D8A405D0C28AC298C286C29412000B0E9F
:1011900000016019D8A405D0C28AC298C286C28450
:1011A00012000C0E00016019D8A41200C28AC28875
:1011B000C296C2941200000E0001666F000E656FA9
:1011C0000001625100016311D8B42CD0010E00015E
:1011D000646F06D00001D890623763370001642B3A
:1011E000000163AFF7D70001D8906537663700017B
:1011F00062510001605D0001635100016159D8A096
:101200000AD0000162510001605F000163510001DA
:10121000615B000165810001D89063336233000196
:10122000642FE1D765C060F066C061F01200000E67
:10123000066E02AE06D0016C021ED8B0022A010E64
:10124000066E04AE04D0036C041ED8B0042A03500A
:101250000410D8B418D0010E056E04D0D89003360F
:101260000436052A04AEFAD70350015C0450025834
:10127000D8A004D00350015E0450025AD890043222
:101280000332052EF1D70650D8B404D0016C021EEB
:10129000D8B0022A01C001F002C002F01200F0EC46
:1012A0000AF028EC0BF0F0EC0AF0D00EFAEC0AF0A1
:1012B000F0EC0AF0000EFAEC0AF0F0EC0AF0000E86
:1012C000FAEC0AF0F0EC0AF0300EFAEC0AF0F0EC6E
:1012D0000AF0140EFAEC0AF0F0EC0AF0040EFAEC44
:1012E0000AF0F0EC0AF0220EFAEC0AF0F0EC0AF048
:1012F000010EFAEC0AF0F0EC0AF0160EFAEC0AF025
:10130000F0EC0AF023EC0BF012000001695100012F
:101310006A11D8B426D0010E00016B6F06D000010F
:10132000D89069376A3700016B2B00016AAFF7D795
:10133000000169510001675D00016A5100016859AF
:10134000D8A008D0000169510001675F00016A510F
:101350000001685B0001D8906A33693300016B2F8C
:10136000E7D767C067F068C068F0120000EE8DF044
:10137000240EEE6AE806FDE1486A00EE2DF01B0E31
:10138000EE6AE806FDE16E0EF66E160EF76E000EC2
:10139000F86E0900F5CFB1F00900F5CFB2F0700E8C
:1013A000F66E160EF76E000EF86E0900F5CF49F0D6
:1013B0004A904A92000EF86E000118EF07F0000EF6
:1013C000066E000E056E03500410D8B41CD0010E3A
:1013D000076E04D0D89003360436072A04AEFAD735
:1013E000D890053606360350015C04500258D8A048
:1013F00005D00350015E0450025A0580D890043293
:101400000332072EEDD705C001F006C002F012002E
:101410000001616FF0EC0AF028EC0BF0F0EC0AF040
:10142000D00EFAEC0AF0F0EC0AF000016151FAEC8F
:101430000AF0F0EC0AF02DEC0BF0F0EC0AF0D10E13
:10144000FAEC0AF0F0EC0AF017EC0BF00001926FE6
:10145000F0EC0AF011EC0BF023EC0BF012000A5048
:101460000B10D8B418D0010E0C6E04D0D8900A36E8
:101470000B360C2A0BAEFAD70A50085C0B500958F1
:10148000D8A004D00A50085E0B50095AD8900B32ED
:101490000A320C2EF1D708C008F009C009F012007A
:1014A0000001605100016203F3CF64F0F4CF65F0F6
:1014B0000001605100016303F35000016527000142
:1014C000615100016203F3500001652764C060F0C0
:1014D00065C061F0120001C005F002C006F004D042
:1014E000054A062A034A042A03C0D9FF04C0DAFFCA
:1014F00005C0E1FF06C0E2FFDFCFE7FFE750D8B449
:101500001200EED70001626F000E0001616F3A0E0B
:101510000001626107D02F0E0001626503D0010E49
:101520000001616F61C060F0000160311200015084
:101530000302F3CF05F0F4CF06F001500402F3509C
:10154000062602500302F350062605C001F006C02D
:1015500002F0120093809382310EC86E9E96000EA8
:10156000C76EC78EC79C000EC66EC650F00B08092A
:10157000C66EC68A1200036E000E026E3A0E03603B
:1015800005D02F0E036402D0010E026E02C001F0DE
:1015900001301200D59AD598D596D59CD584D59290
:1015A000D580F184F294F28AF28EF28C1200C2801D
:1015B000C08EC196C184C192C180C09AC098C086B5
:1015C000C084C092C0801200AC9CAC8AAC98AC8441
:1015D000AB8EAB9CAB88B896810EAF6EB89A1200FA
:1015E000C5CF60F01F0E00016017D8A4F9D7C7A4BB
:1015F0001200F6D70001606F60C0C9FF9EA6FED73B
:101600009E96C55012000001606F9EA8FED760C074
:10161000ADFF12009D989E989D8A9E9AF28CF28E44
:101620001200C58AC5889EA6FED79E961200C58662
:101630009EA6FED79E96C9501200016E9EA8FED7A8
:1016400001C0ADFF1200C5849EA6FED79E96120073
:10165000C5809EA6FED79E961200C5829EA6FED786
:101660009E9612009E9C9D8CF28EF28C1200011BA5
:02167000580020
:020000040020DA
:08000000FFFFFFFFFFFFFFFF00
:020000040030CA
:0E000000000C191EFF8080FF0FC00FE00F40A4
:00000001FF
