:060000000A128A11122809
:10000800FE00030E83120313B0000408B1000A08AF
:10001800B2007F08B3000A128A11B02D0A128A11A1
:100028001528DA01D601D701D801D9018313A030E8
:100038008400D4300A128A1558270A128A110A1223
:100048008A11FA24DB0083010A128A11CB2B83124E
:100058000313CF004230C4004408C80001308312A3
:100068000313CF07FF304F0784000A128A110025B7
:100078000A128A11C4004408D00050080319080065
:100088002530500603194F2850080A128A153827B8
:100098000A128A11322883120313CD01CE01CC0132
:1000A8005A284C150130C4004408CF074F08840073
:1000B8000A128A1100250A128A11303A03195528A2
:1000C80065284F0884000A128A1100250A128A112D
:1000D8000A128A11F0270A128A11031CBB288312FC
:1000E8000313CD01CE010A3083120313B40000308C
:1000F800B5004E08B7004D08B6000A128A11A624AA
:100108000A128A11831203133508CE003408CD0071
:100118004F0884000A128A1100250A128A11D03E5B
:10012800C400FF3003180030C5004408CD07031889
:10013800CE0A4508CE070130C4004408CF074F084F
:1001480084000A128A1100250A128A110A128A11D9
:10015800F0270A128A11031CBB287728831203137D
:10016800CC17D528C030C4004408CC04D5280130A9
:1001780083120313CF07FF304F0784000A128A1136
:1001880000250A128A11D000003A0319FB29583AAF
:100198000319B2282D3A0319B6280D3A0319B228C3
:1001A80032284808840083130008CA00840A00081B
:1001B800CB000230C4004408C8072A29D001D00A5D
:1001C80005305006031933295008C4004407013E7E
:1001D80084000A128A1100250A128A11C5000A121F
:1001E8008A1100250A128A11C60046084B02031D0F
:1001F800FF2845084A02031C33290130C40044087B
:10020800D007E428D001D00A043050060319332956
:100218005008C40044070B3E84000A128A110025C6
:100228000A128A11C5000A128A1100250A128A11B7
:10023800C60046084B02031D232945084A02031C31
:1002480033290130C4004408D00708294C08C039B4
:10025800803A03190629403A0319E228332950083D
:10026800C400C501C41BC5034508803AC6004E0832
:10027800803A4602031D42294D08440203185229B8
:10028800831203135008C400C501C41BC5034408E6
:10029800CD024508031CCE03CE0256298312031350
:1002A800CD01CE014C1D6B294D084E04031981293F
:1002B80030300A128A1538270A128A11FF30831241
:1002C8000313CD070318CE0AFF30CE0758294D086F
:1002D8004E040319812920300A128A1538270A1278
:1002E8008A11FF3083120313CD070318CE0AFF309B
:1002F800CE074D084E04031D6F295008C40044085A
:10030800C900E8290A30BC000030BD004908C40013
:100318004407013E84000A128A1100250A128A1134
:10032800B4000A128A1100250A128A11B5004B0876
:10033800B7004A08B6000A128A1110270A128A1151
:10034800831203133508BF003408BE000A128A114D
:100358008A270A128A11831203133C08303EC5000B
:100368004508E1294908C40044070B3E84000A12E5
:100378008A1100250A128A11B4000A128A1100256E
:100388000A128A11B5004B08B7004A08B6000A12CB
:100398008A1110270A128A118312031334080F399D
:1003A800C5004508C7004708843E84000A128A1120
:1003B80000250A128A11C4004408D00050080A1205
:1003C8008A1538270A128A11FF3083120313C400D2
:1003D8004408C907490A031932284C08C039803A29
:1003E8000319B629403A03198629E229E2290800A7
:1003F80083120313A4007030A0002008A500013068
:1004080083120313A407FF30240784000A128A11F9
:1004180000250A128A11A0002008AC002C08031934
:10042800080025302C060319202A2C080A128A15E0
:1004380030270A128A11032A83120313AA01AB0177
:10044800A7012B2A27150130A0002008A40724089B
:1004580084000A128A1100250A128A11303A0319F7
:10046800262A362A240884000A128A1100250A122C
:100478008A110A128A159D270A128A11031C8C2ACE
:1004880083120313AA01AB010A30F0000030F10017
:10049800831203132B08F3002A08F2000A128A11A8
:1004A800C9240A128A11710883120313AB00700859
:1004B800AA00240884000A128A1100250A128A1147
:1004C800D03EA000FF3003180030A1002008AA0782
:1004D8000318AB0A2108AB070130A0002008A407C5
:1004E800240884000A128A1100250A128A110A12A5
:1004F8008A159D270A128A11031C8C2A482A8312FE
:100508000313A717A62AC030A0002008A704A62A0C
:10051800013083120313A407FF30240784000A1252
:100528008A1100250A128A11AC00003A0319CA2B55
:10053800583A0319832A2D3A0319872A0D3A0319C1
:10054800832A032A2508840083130008A800840A44
:100558000008A9000230A0002008A507FB2AAC016A
:10056800AC0A05302C060319042B2C08A000200720
:10057800013E84000A128A1100250A128A11A1007C
:100588000A128A1100250A128A11A20022082902D9
:10059800031DD02A21082802031C042B0130A000C7
:1005A8002008AC07B52AAC01AC0A04302C060319A4
:1005B800042B2C08A00020070B3E84000A128A1185
:1005C80000250A128A11A1000A128A1100250A12AE
:1005D8008A11A20022082902031DF42A21082802F0
:1005E800031C042B0130A0002008AC07D92A2708D7
:1005F800C039803A0319D72A403A0319B32A042B81
:100608002C08A000A101A01BA1032108803AA20088
:100618002B08803A2202031D132B2A0820020318F4
:10062800232B831203132C08A000A101A01BA103F4
:100638002008AA022108031CAB03AB02272B831254
:100648000313AA01AB01271D3C2B2A082B0403190D
:10065800522B30300A128A1530270A128A11FF30BD
:1006680083120313AA070318AB0AFF30AB07292B21
:100678002A082B040319522B20300A128A15302716
:100688000A128A11FF3083120313AA070318AB0A50
:10069800FF30AB072A082B04031D402B2C08A000B1
:1006A8002008A600B72B0A30F8000030F900260809
:1006B800A0002007013E84000A128A1100250A12B0
:1006C8008A11F0000A128A1100250A128A11F10013
:1006D8002908F3002808F2000A128A114E270A1284
:1006E8008A117108FB007008FA000A128A11BE27E5
:1006F8000A128A117808303E83120313A1002108D8
:10070800B02B2608A00020070B3E84000A128A118D
:1007180000250A128A11F0000A128A1100250A120D
:100728008A11F1002908F3002808F2000A128A1138
:100738004E270A128A1170080F3983120313A10079
:100748002108A3002308843E84000A128A11002588
:100758000A128A11A0002008AC002C080A128A1577
:1007680030270A128A11FF3083120313A0002008D1
:10077800A607260A0319032A2708C039803A03194D
:10078800852B403A0319572BB12BB12B0800831640
:100798000313881108120A128A1590270A128A115F
:1007A8000A128A1560270A128A110A128A15BA27AC
:1007B8000A128A110A128A11EA240A128A110A12E2
:1007C8008A15AB270A128A110A128A15E4270A1217
:1007D8008A1183120313D301D30A53080A128A1108
:1007E800CF260A128A11831203131F1413300A1218
:1007F8008A112B200A128A1183120313D401D501FE
:100808005508803AFF0080307F02031D0D2C6430AC
:10081800540203182D2C823083120313D200DD30CA
:10082800D100D10B152CD20B152C1A2C01308312A8
:100838000313D4070318D50A0030D5075508803AA2
:10084800FF0080307F02031D2B2C64305402031CF0
:100858000F2C02300A128A112D260A128A118312CD
:1008680003135908D100D2015108C2005208C3002D
:100878006B300A128A112B200A128A114130831216
:100888000313D200EE30D100D10B482CD20B482CE8
:10089800000001300A128A112D260A128A118312C9
:1008A80003135908D100D2015108C2005208C300ED
:1008B80050300A128A112B200A128A1141308312F1
:1008C8000313D200EE30D100D10B682CD20B682C68
:1008D800000000300A128A112D260A128A1183128A
:1008E80003135908D100D2015108C2005208C300AD
:1008F80034300A128A112B200A128A1141308312CD
:100908000313D200EE30D100D10B882CD20B882CE7
:100918000000831203135708C3005608C20095301D
:100928000A128A112B200A128A11413083120313EA
:10093800D200EE30D100D10B9F2CD20B9F2C00009F
:10094800A430FB2B83120313B801B901341CB22C59
:100958003608B8070318B90A3708B9070130031071
:10096800B60DB70DFF3E031DB32C01300310B50CB7
:10097800B40CFF3E031DBA2C34083504031DAA2C01
:100988003908B5003808B4000800F401F501701CF6
:10099800D32C7208F4070318F50A7308F507013019
:1009A8000310F20DF30DFF3E031DD42C013003108C
:1009B800F10CF00CFF3E031DDB2C70087104031DC5
:1009C800CB2C7508F1007408F00008008316031397
:1009D800181398161812181583120313981718135A
:0E09E800181681308316031399000800583446
:100A000005308A000408840A820700340134003467
:100A10000A34003464340034E834033410342734A6
:100A20000134003410340034003401340034103404
:100A30000A340A340D344C3465347434203454345C
:100A40006834653420344334613472346E34613434
:100A500067346534203442346534673469346E3425
:100A60002C3420346E346F34773421340A340A3411
:100A700000340A340D344C346534693474347534BC
:100A800072346134203453346534673475346E34D1
:100A900064346F343A3420345B34203425343034B9
:100AA0003234583420345D3400340A340D344C343C
:100AB00065346934743475347234613420344D349F
:100AC00069346E34753474346F343A3420345B34A2
:100AD0002034253430343234583420345D340034FA
:100AE0000A340D344C3465346934743475347234DA
:100AF0006134203448346F34723461343A342034F1
:100B00005B342034253430343234583420345D346E
:100B100000343034313432343334343435343634D0
:100B2000373438343934413442344334443445342E
:100B3000463400340A340D34523465346734693431
:100B40007334743472346F3475342034253475340E
:100B500000340A340D340A340D340A340D340034B0
:100B60008C1E082E1819B62D981CB92D18125A145F
:100B700018161A08AD002D08DB000D305B06031DAA
:100B8000DA2D5808BA3E840083138001BA30AD00D4
:100B90002D08F000A0300A128A15CA270A128A11FD
:100BA000A8300A128A11FC210A128A118312031337
:100BB000D801082E193058020318002E1930F00001
:100BC0000030F1005808AD00AE012D08F2002E08EB
:100BD000F3000A128A1184260A128A1170088312FD
:100BE0000313AF002F08D8005B08AD005808BA3EC9
:100BF00084002D08831380000130AD002D08D80734
:100C000019305806031D082E0130AD002D08D807F5
:100C10000C1F142E1E08D700831603131E08831200
:100C20000313D6001F140C130B1D222E0230DA06FC
:100C3000DA1C1E2E831203130816212E83120313AF
:100C400008120B113308FF0032088A0031088400B3
:100C5000300E8300FE0E7E0E090083120313B600D1
:100C60000A128A1569270A128A110A128A15482758
:100C70000A128A110A128A1569270A128A11D030BB
:100C80000A128A1584270A128A110A128A156927FC
:100C90000A128A118312031336080A128A1584274E
:100CA0000A128A110A128A1569270A128A110A126F
:100CB0008A1540270A128A110A128A1569270A1210
:100CC0008A11D1300A128A1584270A128A110A124F
:100CD0008A1569270A128A110A128A1572270A12BE
:100CE0008A1183120313B5003508D9000A128A1538
:100CF00069270A128A110A128A157B270A128A1199
:100D00000A128A1550270800F601F31F8E2EF209E9
:100D1000F309F20A0319F30AF601F60AF11F952EF8
:100D2000F009F109F00A0319F10A700871040319B6
:100D3000C22EF501F50AF11BA92E01300310F00DAA
:100D4000F10DFF3E031D9E2E0130F4007408F507DF
:100D50009B2E71087302031DAF2E70087202031CD4
:100D6000B72E7008F2027108031CF303F30201307E
:100D70000310F10CF00CFF3E031DB82E0130F502FC
:100D8000031DA92E76080319CA2EF209F309F20AE7
:100D90000319F30A7308F1007208F00008008312C7
:100DA0000313B4003408031DD92E9F121F129F1184
:100DB00008003403031DE02E9F121F129F15080028
:100DC00002303406031DE82E9F121F169F110800E3
:100DD00003303406031DF02E9F121F169F150800C6
:100DE00004303406031DF82E9F161F129F110800B1
:100DF00005303406031D002F9F161F129F15080093
:100E000006303406031D082F9F161F169F11080079
:100E100007303406031D08009F161F169F15080093
:100E200083120313B901BA01340835040319492F99
:100E3000BB01BB0AB51B282F01300310B40DB50D43
:100E4000FF3E031D1D2F0130B8003808BB071A2FC5
:100E500001300310B90DBA0DFF3E031D292F3508CF
:100E60003702031D352F34083602031C3E2F340889
:100E7000B6023508031CB703B7023914013003105A
:100E8000B50CB40CFF3E031D3F2F0130BB02031D08
:100E9000282F3A08B5003908B4000800F501F6011A
:100EA000700871040319852FF701F70AF11B642FED
:100EB00001300310F00DF10DFF3E031D592F0130DD
:100EC000F4007408F707562F01300310F50DF60DE6
:100ED000FF3E031D652F71087302031D712F7008FB
:100EE0007202031C7A2F7008F2027108031CF303CC
:100EF000F302751401300310F10CF00CFF3E031DDA
:100F00007B2F0130F702031D642F7608F10075086E
:100F1000F0000800831203133C083D040319B92FA5
:100F2000C101C10ABD1BA02F01300310BC0DBD0DB6
:100F3000FF3E031D952F0130C0004008C107922FCE
:100F40003D083F02031DA62F3C083E02031CAE2FA6
:100F50003C08BE023D08031CBF03BF020130031062
:100F6000BD0CBC0CFF3E031DAF2F0130C102031DA1
:100F7000A02F3F08BD003E08BC0008007808790497
:100F80000319EB2FFD01FD0AF91BD22F01300310CD
:100F9000F80DF90DFF3E031DC72F0130FC007C0842
:100FA000FD07C42F79087B02031DD82F78087A0229
:100FB000031CE02F7808FA027908031CFB03FB02EC
:100FC00001300310F90CF80CFF3E031DE12F013036
:100FD000FD02031DD22F7B08F9007A08F8000800F3
:100FE00083120313B500B4013A3035020318FE2F03
:100FF00030303502031CFE2FB401B40A340C080053
:101E6000F000831203130C1E312F70089900080034
:101E700083120313B4000C1E3B2F34089900080092
:101E800083160313911483128C1D432F8C110800A9
:101E900083160313111483128C1D4B2F8C11080011
:101EA00083160313111583128C1D532F8C110800F8
:101EB00064008001840A0406031900340406592FC3
:101EC000831203130C13831603130C178B170B17B2
:101ED00008008316031311081F39031D692F141DF1
:101EE0000800692F83160313911583128C1D752F1B
:101EF0008C11130808008316031391161116831210
:101F00008C1D7F2F8C11080083120313B40034083A
:101F100093008C1D892F8C11831603131108080060
:101F2000831603138112011281110115811001140E
:101F30000B118B168B170B170800F100F0013A30CC
:101F400071020318A92F30307102031CA92FF00170
:101F5000F00A700C0800831603130C12831203138B
:101F60000C12831603138C16831203138C120B1797
:101F70008B170800831203131F14831603139F1774
:101F80009F111F159F101F141F13831203139F17F8
:101F90001F130800F2007208F1007108F3007008C6
:101FA000840083130008F100730884007108800026
:101FB0000008031908000130F1007108F30701302F
:101FC000F1007108F007CF2F83120313071687154E
:101FD0003130831603139300831203138C1183167D
:101FE00003139401941714138312031394131413FB
:101FF00094121412941114159414141094160800C9
:02400E00FFFFB2
:00000001FF
