:060000000A128A11122809
:10000800FE00030E83120313B0000408B1000A08AF
:10001800B2007F08B3000A128A11C82D0A128A1189
:100028001528D30183134530840050300A128A15ED
:1000380026260A128A11A0308400D4300A128A15A2
:1000480026260A128A110A128A11FD270A128A1113
:10005800D0000A128A11FE270A128A11D1000A1248
:100068008A11FF27D20083010A128A11572C83169E
:100078000313EA00D43083120313C2004208831624
:100088000313E500013083160313EA07FF306A07FC
:1000980084000A128A110C270A128A118312031388
:1000A800C200420883160313ED006D080319080007
:1000B80025306D06031967286D080A128A15062669
:1000C8000A128A11462883160313EB01EC01E90191
:1000D80076286915013083120313C200420883167B
:1000E8000313EA076A0884000A128A110C270A1205
:1000F8008A11303A03196D2881286A0884000A1287
:100108008A110C270A128A110A128A1598260A12CD
:100118008A11031CF52883160313EB01EC010A303E
:1001280083120313B4000030B500831603136C0860
:1001380083120313B700831603136B088312031388
:10014800B6000A128A15FD260A128A1183120313B1
:10015800350883160313EC0083120313340883163F
:100168000313EB006A0884000A128A110C270A128A
:100178008A11D03E83120313C200FF3003180030E7
:10018800C300420883160313EB070318EC0A831213
:100198000313430883160313EC0701308312031378
:1001A800C200420883160313EA076A0884000A1289
:1001B8008A110C270A128A110A128A1598260A121D
:1001C8008A11031CF528932883160313E9170F29AE
:1001D800C03083120313C200420883160313E904D4
:1001E8000F29013083160313EA07FF306A078400DA
:1001F8000A128A110C270A128A11ED00003A031913
:10020800872A583A0319E8282D3A0319EC280D3A99
:100218000319E82846286508840083130008E700C6
:10022800840A0008E800023083120313C20042085F
:1002380083160313E5078029ED01ED0A05306D06E5
:10024800031989296D0883120313C2004207013E6E
:1002580084000A128A110C270A128A11C3000A1292
:100268008A110C270A128A11C40044088316031342
:100278006802031D452983120313430883160313D9
:100288006702031C8929013083120313C200420844
:1002980083160313ED072229ED01ED0A04306D06DC
:1002A800031989296D0883120313C20042070B3E04
:1002B80084000A128A110C270A128A11C3000A1232
:1002C8008A110C270A128A11C400440883160313E2
:1002D8006802031D75298312031343088316031349
:1002E8006702031C8929013083120313C2004208E4
:1002F80083160313ED0752296908C039803A031998
:100308005029403A0319202989296D0883120313BB
:10031800C200C301C21BC3034308803AC40083164A
:1003280003136C08803A831203134402031DA229A5
:10033800831603136B088312031342020318BA29A6
:10034800831603136D0883120313C200C301C21B73
:10035800C303420883160313EB02831203134308F3
:1003680083160313031CEC03EC02BE298316031344
:10037800EB01EC01691DD3296B086C040319E92909
:1003880030300A128A1506260A128A11FF3083169F
:100398000313EB070318EC0AFF30EC07C0296B08BE
:1003A8006C040319E92920300A128A1506260A1254
:1003B8008A11FF3083160313EB070318EC0AFF308A
:1003C800EC076B086C04031DD7296D08831203130F
:1003D800C200420883160313E600722A0A30831209
:1003E8000313BC000030BD00831603136608831294
:1003F8000313C2004207013E84000A128A110C2727
:100408000A128A11B4000A128A110C270A128A11D8
:10041800B50083160313680883120313B700831605
:100428000313670883120313B6000A128A15C2273A
:100438000A128A11831203133508BF003408BE005C
:100448000A128A1552270A128A11831203133C08CA
:10045800303EC3004308692A660883120313C200AA
:1004680042070B3E84000A128A110C270A128A11CD
:10047800B4000A128A110C270A128A11B5008316D1
:100488000313680883120313B7008316031367085E
:1004980083120313B6000A128A15C2270A128A1198
:1004A8008312031334080F39C30043088316031358
:1004B800E4006408393E84000A128A110C270A12E3
:1004C8008A1183120313C200420883160313ED0036
:1004D8006D080A128A1506260A128A11FF3083123D
:1004E8000313C200420883160313E607660A0319BA
:1004F80046286908C039803A0319302A403A031956
:10050800F2296C2A6C2A080083120313A4007030A5
:10051800A0002008A500013083120313A407FF30B0
:10052800240784000A128A110C270A128A11A000D3
:100538002008AC002C080319080025302C060319E4
:10054800AC2A2C080A128A15FE250A128A118F2A4B
:1005580083120313AA01AB01A701B72A271501309B
:10056800A0002008A407240884000A128A110C2776
:100578000A128A11303A0319B22AC22A24088400BE
:100588000A128A110C270A128A110A128A156B2676
:100598000A128A11031C182B83120313AA01AB0138
:1005A8000A30F0000030F100831203132B08F30027
:1005B8002A08F2000A128A15DC260A128A11710822
:1005C80083120313AB007008AA00240884000A12DF
:1005D8008A110C270A128A11D03EA000FF30031896
:1005E8000030A1002008AA070318AB0A2108AB07AE
:1005F8000130A0002008A407240884000A128A11E8
:100608000C270A128A110A128A156B260A128A11F5
:10061800031C182BD42A83120313A717322BC030BC
:10062800A0002008A704322B013083120313A4076B
:10063800FF30240784000A128A110C270A128A1133
:10064800AC00003A0319562C583A03190F2B2D3ACF
:100658000319132B0D3A03190F2B8F2A2508840031
:1006680083130008A800840A0008A9000230A0002B
:100678002008A507872BAC01AC0A05302C06031906
:10068800902B2C08A0002007013E84000A128A1132
:100698000C270A128A11A1000A128A110C270A12C1
:1006A8008A11A20022082902031D5C2B21082802B6
:1006B800031C902B0130A0002008AC07412BAC0193
:1006C800AC0A04302C060319902B2C08A000200734
:1006D8000B3E84000A128A110C270A128A11A10003
:1006E8000A128A110C270A128A11A200220829026A
:1006F800031D802B21082802031C902B0130A00029
:100708002008AC07652B2708C039803A0319632BEA
:10071800403A03193F2B902B2C08A000A101A01BE5
:10072800A1032108803AA2002B08803A2202031D67
:100738009F2B2A0820020318AF2B831203132C08BF
:10074800A000A101A01BA1032008AA022108031CE4
:10075800AB03AB02B32B83120313AA01AB01271D12
:10076800C82B2A082B040319DE2B30300A128A15ED
:10077800FE250A128A11FF3083120313AA070318F1
:10078800AB0AFF30AB07B52B2A082B040319DE2B65
:1007980020300A128A15FE250A128A11FF308312A8
:1007A8000313AA070318AB0AFF30AB072A082B0468
:1007B800031DCC2B2C08A0002008A600432C0A30CF
:1007C800F8000030F9002608A0002007013E840048
:1007D8000A128A110C270A128A11F0000A128A11C9
:1007E8000C270A128A11F1002908F3002808F200E0
:1007F8000A128A1586270A128A117108FB007008E6
:10080800FA000A128A1520270A128A117808303E3F
:1008180083120313A10021083C2C2608A0002007FE
:100828000B3E84000A128A110C270A128A11F00062
:100838000A128A110C270A128A11F1002908F300FA
:100848002808F2000A128A1586270A128A117008E7
:100858000F3983120313A1002108A3002308393E8E
:1008680084000A128A110C270A128A11A000200893
:10087800AC002C080A128A15FE250A128A11FF30CC
:1008880083120313A0002008A607260A03198F2A3B
:100898002708C039803A0319112C403A0319E32B71
:1008A8003D2C3D2C08008316031388110A128A1563
:1008B8005E260A128A110A128A152E260A128A112F
:1008C8000A128A1588260A128A110A128A11EC2736
:1008D8000A128A110A128A1579260A128A110A122C
:1008E8008A15C2260A128A118312031350080A12A3
:1008F8008A11AB270A128A110A128A113F260A1294
:100908008A119830831203134806031D852C1F157E
:1009180004300A128A11B5260A128A1183120313A7
:100928004C08831603179000100883120313C9009C
:100938004130831603179100EE309000900BA22CE3
:10094800910BA22C000005300A128A11B5260A1252
:100958008A11831203134C0883160317900010089A
:1009680083120313CD004130831603179100EE3034
:100978009000900BBD2C910BBD2C000006300A1284
:100988008A11B5260A128A11831203134C0883169A
:1009980003179000100883120313C7004130831611
:1009A80003179100EE309000900BD82C910BD82CA7
:1009B800000002300A128A11B5260A128A1183121F
:1009C80003134C08831603179000100883120313AF
:1009D800CA004130831603179100EE309000900B47
:1009E800F32C910BF32C000001300A128A11B52662
:1009F8000A128A11831203134C08831603179000F6
:100A0800100883120313CE00413083160317910098
:100A1800EE309000900B0E2D910B0E2D0000003043
:100A28000A128A11B5260A128A11831203134C0876
:100A3800831603179000100883120313CF00510880
:100A48008316031790009101100883160313D4002E
:100A580083160317110883160313D5008312031393
:100A6800460883160313D700831203134508831619
:100A78000313D60083120313470883160317920043
:100A88009301120883160313D8008316031713085B
:100A980083160313D900831203134D088316031713
:100AA80094009501140883160313DA0083160317BC
:100AB800150883160313DB008312031349088316F2
:100AC800031796009701160883160313DC00831694
:100AD8000317170883160313DD00831203134A084C
:100AE8008316031798009901180883160313DE006C
:100AF80083160317190883160313DF0083120313E1
:100B08004E08831603179A009B011A0883160313CD
:100B1800E000831603171B0883160313E1008312F2
:100B280003134F08831603179C009D011C088316A6
:100B38000313E200831603171D0883160313E3004B
:100B480013300A128A113B200A128A114130831687
:100B580003179100EE309000900BB02D910BB02D43
:100B680000004D300A128A113B200A128A118312A2
:100B78000313531CC32D831203138815C62D831228
:100B880003138811C801852C8C1E202E1819CE2D10
:100B9800981CD12D1812D31418161A08AD002D0858
:100BA800D2000D305206031DF22D4B08BA3E8400C8
:100BB80083138001BA30AD002D08F000A0300A126E
:100BC8008A15A8260A128A114A300A128A1188221E
:100BD8000A128A1183120313CB01202E19304B02FB
:100BE8000318182E1930F0000030F1004B08AD0042
:100BF800AE012D08F2002E08F3000A128A116027B0
:100C08000A128A11700883120313AF002F08CB0051
:100C18005208AD004B08BA3E84002D0883138000AB
:100C28000130AD002D08CB0719304B06031D202ECF
:100C38000130AD002D08CB070C1F2B2E1E08C60057
:100C4800831603131E0883120313C5000C130B1D10
:100C5800342E0130AD002D08C8070130D3060B1122
:100C68003308FF0032088A0031088400300E830000
:100C7800FE0E7E0E09000A128A1537260A128A11FC
:100C88000A128A1516260A128A110A128A15372696
:100C98000A128A11D0300A128A1552260A128A11AB
:100CA8000A128A1537260A128A1100300A128A1582
:100CB80052260A128A110A128A1537260A128A112E
:100CC80000300A128A1552260A128A110A128A1547
:100CD80037260A128A1130300A128A1552260A1249
:100CE8008A110A128A1537260A128A1114300A1232
:100CF8008A1552260A128A110A128A1537260A12EA
:100D08008A1104300A128A1552260A128A110A1206
:100D18008A1537260A128A1122300A128A15522693
:100D28000A128A110A128A1537260A128A11013004
:100D38000A128A1552260A128A110A128A153726A9
:100D48000A128A1116300A128A1552260A128A11B4
:100D58000A128A1537260A128A110A128A151E26BD
:100D6800080083120313B6000A128A1537260A12DE
:100D78008A110A128A1516260A128A110A128A1567
:100D880037260A128A11D0300A128A1552260A12F8
:100D98008A110A128A1537260A128A118312031336
:100DA80036080A128A1552260A128A110A128A1558
:100DB80037260A128A110A128A150E260A128A1171
:100DC8000A128A1537260A128A11D1300A128A1590
:100DD80052260A128A110A128A1537260A128A110D
:100DE8000A128A1540260A128A1183120313B500C3
:100DF8003508CC000A128A1537260A128A110A12F7
:100E08008A1549260A128A110A128A151E2608000E
:100E180007308A000408840A820700340134003449
:100E28000A34003464340034E8340334103427348A
:100E380001340034103400340034013400341034E8
:100E48002534753426342534753426343234303418
:100E580025343034323458342D3425343034323457
:100E680058342D3425343034323458342034253431
:100E78003034323458343A342534303432345834F7
:100E88003A34253430343234583400343034313440
:100E980032343334343435343634373438343934FE
:100EA80041344234433444344534463400340A34FB
:100EB8000D3400340A340034F601F31F6A2FF209A6
:100EC800F309F20A0319F30AF601F60AF11F712F62
:100ED800F009F109F00A0319F10A700871040319FD
:100EE8009E2FF501F50AF11B852F01300310F00D37
:100EF800F10DFF3E031D7A2F0130F4007408F50749
:100F0800772F71087302031D8B2F70087202031C60
:100F1800932F7008F2027108031CF303F3020130E7
:100F28000310F10CF00CFF3E031D942F0130F50265
:100F3800031D852F76080319A62FF209F309F20A73
:100F48000319F30A7308F1007208F000080083120D
:100F58000313B4003408031DB52F9F121F129F11ED
:100F680008003403031DBC2F9F121F129F15080091
:100F780002303406031DC42F9F121F169F1108004C
:100F880003303406031DCC2F9F121F169F1508002F
:100F980004303406031DD42F9F161F129F1108001A
:100FA80005303406031DDC2F9F161F129F150800FD
:100FB80006303406031DE42F9F161F169F110800E4
:100FC80007303406031D08009F161F169F150800DA
:100FD80083160313981318139816181218158312EA
:100FE80003139817181318168130831603139900E2
:080FF800080001341C345834D8
:101BFC00F000831203130C1EFF2D700899000800CF
:101C0C0083120313B4000C1E092E3408990008002B
:101C1C0083160313911483128C1D112E8C11080042
:101C2C0083160313111483128C1D192E8C110800AA
:101C3C0083160313111583128C1D212E8C11080091
:101C4C0064008001840A0406031900340406272E5C
:101C5C00831203130C13831603130C178B170B1718
:101C6C0008008316031311081F39031D372E141D8A
:101C7C000800372E83160313911583128C1D432EE7
:101C8C008C11130808008316031391161116831276
:101C9C008C1D4D2E8C11080083120313B4003408D4
:101CAC0093008C1D572E8C118316031311080800FA
:101CBC008316031381120112811101158114011471
:101CCC000B118B168B170B170800F100F0013A3033
:101CDC0071020318772E30307102031C772EF0013D
:101CEC00F00A700C0800831603130C1283120313F2
:101CFC000C12831603138C16831203138C120B17FE
:101D0C008B170800831203131F14831603139F17DA
:101D1C009F111F159F101F141F13831203139F175E
:101D2C001F13080083120313B500B4013A303502B7
:101D3C000318A62E30303502031CA62EB401B40AAB
:101D4C00340C0800F2007208F1007108F3007008FE
:101D5C00840083130008F10073088400710880006C
:101D6C000008031908000130F1007108F307013075
:101D7C00F1007108F007AD2E8316031307168715B3
:101D8C0031309300831203138C11831603139401C7
:101D9C009417141383120313941314139412141220
:101DAC00941514119410141094160800F401F501F4
:101DBC00701CE62E7208F4070318F50A7308F50771
:101DCC0001300310F20DF30DFF3E031DE72E013021
:101DDC000310F10CF00CFF3E031DEE2E7008710485
:101DEC00031DDE2E7508F1007408F0000800831244
:101DFC000313B801B901341C092F3608B8070318AE
:101E0C00B90A3708B90701300310B60DB70DFF3EFC
:101E1C00031D0A2F01300310B50CB40CFF3E031D3B
:101E2C00112F34083504031D012F3908B50038086B
:101E3C00B40008007808790403194D2FFD01FD0A40
:101E4C00F91B342F01300310F80DF90DFF3E031D63
:101E5C00292F0130FC007C08FD07262F79087B0216
:101E6C00031D3A2F78087A02031C422F7808FA02D5
:101E7C007908031CFB03FB0201300310F90CF80C6E
:101E8C00FF3E031D432F0130FD02031D342F7B0841
:101E9C00F9007A08F8000800831203133C083D048B
:101EAC000319812FC101C10ABD1B682F013003101A
:101EBC00BC0DBD0DFF3E031D5D2F0130C000400861
:101ECC00C1075A2F3D083F02031D6E2F3C083E02EE
:101EDC00031C762F3C08BE023D08031CBF03BF0247
:101EEC0001300310BD0CBC0CFF3E031D772F0130DD
:101EFC00C102031D682F3F08BD003E08BC0008004E
:101F0C00F501F601700871040319BD2FF701F70AEA
:101F1C00F11B9C2F01300310F00DF10DFF3E031D42
:101F2C00912F0130F4007408F7078E2F0130031045
:101F3C00F50DF60DFF3E031D9D2F71087302031D59
:101F4C00A92F70087202031CB22F7008F2027108DC
:101F5C00031CF303F302751401300310F10CF00CA5
:101F6C00FF3E031DB32F0130F702031D9C2F760893
:101F7C00F1007508F000080083120313B901BA01CF
:101F8C00340835040319FB2FBB01BB0AB51BDA2F30
:101F9C0001300310B40DB50DFF3E031DCF2F0130E2
:101FAC00B8003808BB07CC2F01300310B90DBA0D9F
:101FBC00FF3E031DDB2F35083702031DE72F3408C6
:101FCC003602031CF02F3408B6023508031CB70385
:101FDC00B702391401300310B50CB40CFF3E031DCD
:101FEC00F12F0130BB02031DDA2F3A08B500390876
:041FFC00B400080025
:02400E003AFF77
:00000001FF
