:100000000A128A1112285834FE00030E83120313B9
:10001000B0000408B1000A08B2007F08B3000A1259
:100020008A11712E0A128A111528D701D80183135B
:10003000A0308400C4300A128A1591250A128A1150
:10004000831790308400AA300A128A1591250A126B
:100050008A11831603130A128A1567250A128A1158
:10006000E4000A128A1568250A128A11E500831233
:1000700003130A128A110320D90083010A128A117C
:100080008E2A83160313CC00443083120313D4004A
:10009000540883160313C500013083160313CC07DD
:1000A000FF304C0784000A128A1500200A128A11B8
:1000B00083120313D400540883160313CD004D0894
:1000C0000319080025304D0603196D284D080A1242
:1000D0008A1571250A128A114C2883160313CA0146
:1000E000CB01C9017C284915013083120313D400C8
:1000F000540883160313CC074C0884000A128A158F
:1001000000200A128A11303A0319732887284C08F4
:1001100084000A128A1500200A128A110A128A150E
:10012000FA250A128A11031CFB2883160313CA013D
:10013000CB010A3083120313B6000030B7008316D8
:1001400003134B0883120313B900831603134A08E1
:1001500083120313B8000A128A1571260A128A1133
:1001600083120313370883160313CB008312031380
:10017000360883160313CA004C0884000A128A1535
:1001800000200A128A11D03E83120313D400FF30DC
:1001900003180030D500540883160313CA07031848
:1001A000CB0A83120313550883160313CB070130C0
:1001B00083120313D400540883160313CC074C088E
:1001C00084000A128A1500200A128A110A128A155E
:1001D000FA250A128A11031CFB2899288316031397
:1001E000C9171529C03083120313D400540883168D
:1001F0000313C9041529013083160313CC07FF30FC
:100200004C0784000A128A1500200A128A11CD00B8
:10021000003A03198D2A583A0319EE282D3A03198A
:10022000F2280D3A0319EE284C2845088400831360
:100230000008C700840A0008C800023083120313B4
:10024000D400540883160313C5078629CD01CD0AAF
:1002500005304D0603198F294D0883120313D4006E
:100260005407013E84000A128A1500200A128A11DE
:10027000D5000A128A1500200A128A11D6005608E3
:10028000831603134802031D4B29831203135508D9
:10029000831603134702031C8F29013083120313B3
:1002A000D400540883160313CD072829CD01CD0AA5
:1002B00004304D0603198F294D0883120313D4000F
:1002C00054070B3E84000A128A1500200A128A1174
:1002D000D5000A128A1500200A128A11D600560883
:1002E000831603134802031D7B2983120313550849
:1002F000831603134702031C8F2901308312031353
:10030000D400540883160313CD0758294908C0396F
:10031000803A03195629403A031926298F294D0896
:1003200083120313D400D501D41BD5035508803A9A
:10033000D600831603134B08803A83120313560228
:10034000031DA829831603134A08831203135402BA
:100350000318C029831603134D0883120313D40016
:10036000D501D41BD503540883160313CA02831284
:100370000313550883160313031CCB03CB02C429B4
:1003800083160313CA01CB01491DD9294A084B041E
:100390000319EF2930300A128A1571250A128A11C1
:1003A000FF3083160313CA070318CB0AFF30CB07AD
:1003B000C6294A084B040319EF2920300A128A156E
:1003C00071250A128A11FF3083160313CA07031816
:1003D000CB0AFF30CB074A084B04031DDD294D082B
:1003E00083120313D400540883160313C600782A1B
:1003F0000A3083120313BE000030BF0083160313BC
:10040000460883120313D4005407013E84000A12E5
:100410008A1500200A128A11B6000A128A150020D5
:100420000A128A11B70083160313480883120313B4
:10043000B90083160313470883120313B8000A1286
:100440008A1536270A128A11831203133708C1004E
:100450003608C0000A128A15C6260A128A118312AB
:1004600003133E08303ED50055086F2A4608831214
:100470000313D40054070B3E84000A128A1500208F
:100480000A128A11B6000A128A1500200A128A116D
:10049000B70083160313480883120313B9008316A9
:1004A0000313470883120313B8000A128A1536276C
:1004B0000A128A118312031336080F39D500550822
:1004C00083160313C4004408393E84000A128A15B7
:1004D00000200A128A1183120313D40054088316D1
:1004E0000313CD004D080A128A1571250A128A11CC
:1004F000FF3083120313D400540883160313C60776
:10050000460A03194C284908C039803A0319362A8B
:10051000403A0319F829722A722A08008316031335
:100520008811081283120313861706138612061207
:100530008B150A128A15C0250A128A110A128A1509
:1005400099250A128A110A128A15EA250A128A11B5
:100550000A128A150A260A128A110A128A15DB253E
:100560000A128A110A128A151B260A128A11831688
:10057000031364080A128A1574270A128A11831653
:100580000313DC01DD015D08803AFF0080307F024B
:10059000031DCC2A64305C020318EC2A4130831618
:1005A0000313CF00EE30CE00CE0BD42ACF0BD42ACB
:1005B0000000013083160313DC070318DD0A003046
:1005C000DD075D08803AFF0080307F02031DEA2AC4
:1005D00064305C02031CCE2A8312031308168316B0
:1005E0000313DE01DF015F08803AFF0080307F02E5
:1005F000031DFC2A64305E0203181C2B4130831655
:100600000313CF00EE30CE00CE0B042BCF0B042B08
:100610000000013083160313DE070318DF0A0030E1
:10062000DF075F08803AFF0080307F02031D1A2B2E
:1006300064305E02031CFE2A831203130812831621
:100640000313E001E1016108803AFF0080307F027E
:10065000031D2C2B6430600203184C2B4130831691
:100660000313CF00EE30CE00CE0B342BCF0B342B48
:100670000000013083160313E0070318E10A00307D
:10068000E1076108803AFF0080307F02031D4A2B9A
:1006900064306002031C2E2B83120313081683168A
:1006A0000313E201E3016308803AFF0080307F0218
:1006B000031D5C2B6430620203187C2B41308316CF
:1006C0000313CF00EE30CE00CE0B642BCF0B642B88
:1006D0000000013083160313E2070318E30A003019
:1006E000E3076308803AFF0080307F02031D7A2B06
:1006F00064306202031C5E2B8312031308120A1279
:100700008A1128270A128A119830831603132306A8
:10071000031D9A2B023083120313D706D71C942B88
:10072000831203138815972B8312031388118316E2
:100730000313A30183120313571C842B1F150430CA
:100740000A128A119E270A128A1183160313260899
:10075000CE004E08A4004130CF00EE30CE00CE0BCC
:10076000AF2BCF0BAF2B000005300A128A119E274A
:100770000A128A11831603132608CE004E08A7001A
:100780004130CF00EE30CE00CE0BC42BCF0BC42BAC
:10079000000006300A128A119E270A128A11831657
:1007A00003132608CE004E08A2004130CF00EE30E1
:1007B000CE00CE0BD92BCF0BD92B000002300A1262
:1007C0008A119E270A128A11831603132608CE0067
:1007D0004E08A5004130CF00EE30CE00CE0BEE2B00
:1007E000CF0BEE2B000001300A128A119E270A124D
:1007F0008A11831603132608CE004E08A800413044
:10080000CF00EE30CE00CE0B032CCF0B032C00001C
:1008100000300A128A119E270A128A1183160313C6
:100820002608CE004E08A9006508CE00CF014E086C
:1008300083120313C400831603134F088312031398
:10084000C50083160313210883120313C700831600
:100850000313200883120313C60083160313220810
:10086000D000D101500883120313C800831603136C
:10087000510883120313C900831603132708D200FB
:10088000D301520883120313CA00831603135308BB
:1008900083120313CB00831603132408D400D5015D
:1008A000540883120313CC008316031355088312D4
:1008B0000313CD00831603132508D600D70156086D
:1008C00083120313CE0083160313570883120313F6
:1008D000CF00831603132808D800D90158088312C3
:1008E0000313D00083160313590883120313D10096
:1008F000831603132908DA00DB015A088312031355
:10090000D200831603135B0883120313D300133042
:100910000A128A1141200A128A11413083160313E8
:10092000CF00EE30CE00CE0B932CCF0B932C0000DB
:100930004D300A128A1141200A128A1183120313C0
:100940005710842B83120313A4007030A0002008DA
:10095000A500013083120313A407FF30240784008D
:100960000A128A1500200A128A11A0002008AC0081
:100970002C080319080025302C060319C62C2C0856
:100980000A128A1569250A128A11A92C83120313E7
:10099000AA01AB01A701D12C27150130A000200826
:1009A000A407240884000A128A1500200A128A115A
:1009B000303A0319CC2CDC2C240884000A128A1546
:1009C00000200A128A110A128A15CD250A128A11EC
:1009D000031C322D83120313AA01AB010A30F0006D
:1009E0000030F100831203132B08F3002A08F200F1
:1009F0000A128A1550260A128A11710883120313EB
:100A0000AB007008AA00240884000A128A1500208E
:100A10000A128A11D03EA000FF3003180030A10056
:100A20002008AA070318AB0A2108AB070130A00071
:100A30002008A407240884000A128A1500200A123C
:100A40008A110A128A15CD250A128A11031C322D29
:100A5000EE2C83120313A7174C2DC030A0002008E2
:100A6000A7044C2D013083120313A407FF30240781
:100A700084000A128A1500200A128A11AC00003A7A
:100A80000319702E583A0319292D2D3A03192D2DCB
:100A90000D3A0319292DA92C250884008313000879
:100AA000A800840A0008A9000230A0002008A507B9
:100AB000A12DAC01AC0A05302C060319AA2D2C0877
:100AC000A0002007013E84000A128A1500200A12A5
:100AD0008A11A1000A128A1500200A128A11A200A6
:100AE00022082902031D762D21082802031CAA2DA5
:100AF0000130A0002008AC075B2DAC01AC0A04302B
:100B00002C060319AA2D2C08A00020070B3E8400F8
:100B10000A128A1500200A128A11A1000A128A15E7
:100B200000200A128A11A20022082902031D9A2D10
:100B300021082802031CAA2D0130A0002008AC07C0
:100B40007F2D2708C039803A03197D2D403A0319BB
:100B5000592DAA2D2C08A000A101A01BA10321083A
:100B6000803AA2002B08803A2202031DB92D2A08E0
:100B700020020318C92D831203132C08A000A10121
:100B8000A01BA1032008AA022108031CAB03AB028F
:100B9000CD2D83120313AA01AB01271DE22D2A08D4
:100BA0002B040319F82D30300A128A1569250A1210
:100BB0008A11FF3083120313AA070318AB0AFF3010
:100BC000AB07CF2D2A082B040319F82D20300A1269
:100BD0008A1569250A128A11FF3083120313AA07A6
:100BE0000318AB0AFF30AB072A082B04031DE62DC0
:100BF0002C08A0002008A6005D2E0A30F800003066
:100C0000F9002608A0002007013E84000A128A1578
:100C100000200A128A11F0000A128A1500200A1216
:100C20008A11F1002908F3002808F2000A128A1537
:100C3000FA260A128A117108FB007008FA000A12DB
:100C40008A1594260A128A117808303E83120313FB
:100C5000A1002108562E2608A00020070B3E840084
:100C60000A128A1500200A128A11F0000A128A1547
:100C700000200A128A11F1002908F3002808F20066
:100C80000A128A15FA260A128A1170080F3983127D
:100C90000313A1002108A3002308393E84000A128F
:100CA0008A1500200A128A11A0002008AC002C0826
:100CB0000A128A1569250A128A11FF30831203135A
:100CC000A0002008A607260A0319A92C2708C03966
:100CD000803A03192B2E403A0319FD2D572E572E1B
:100CE00008008C1EC92E1819772E981C7A2E1812FF
:100CF000571518161A08AD002D08D9000D305906E1
:100D0000031D9B2E5808AA3E840083138001AA303D
:100D1000AD002D08F00090300A128A1535260A120F
:100D20008A114A300A128A11A2240A128A118312E5
:100D30000313D801C92E193058020318C12E1930D7
:100D4000F0000030F1005808AD00AE012D08F200AF
:100D50002E08F3000A128A15B5270A128A117008A4
:100D600083120313AF002F08D8005908AD005808AC
:100D7000AA3E84002D08831380000130AD002D08A9
:100D8000D80719305806031DC92E0130AD002D08B3
:100D9000D8070C1FD42E1E0883160313A1001E08AB
:100DA000A000831203130C130B1DDD2E0130AD00C8
:100DB0002D0883160313A3070B110B1C1C2F831282
:100DC000B401B5013508803AFF0080307F02031D71
:100DD000EB2E0A30340203180B2F41308312031319
:100DE000AE00EE30AD00AD0BF32EAE0BF32E0000D7
:100DF000013083120313B4070318B50A0030B50796
:100E00003508803AFF0080307F02031D092F0A3029
:100E10003402031CED2E83120313861F1B2F57145D
:100E20000830D706D71D182F8312031308161B2F5F
:100E30008312031308120B1083123308FF003208C9
:100E40008A0031088400300E8300FE0E7E0E0900F9
:100E50000A128A15A2250A128A110A128A158125F8
:100E60000A128A110A128A15A2250A128A11D03092
:100E70000A128A15B4250A128A110A128A15A225A5
:100E80000A128A1100300A128A15B4250A128A1130
:100E90000A128A15A2250A128A1100300A128A152E
:100EA000B4250A128A110A128A15A2250A128A1179
:100EB00030300A128A15B4250A128A110A128A15CC
:100EC000A2250A128A1114300A128A15B4250A12B0
:100ED0008A110A128A15A2250A128A1104300A12EE
:100EE0008A15B4250A128A110A128A15A2250A1235
:100EF0008A1122300A128A15B4250A128A110A129E
:100F00008A15A2250A128A1101300A128A15B425FF
:100F10000A128A110A128A15A2250A128A1116309B
:100F20000A128A15B4250A128A110A128A15A225F4
:100F30000A128A110A128A158925080083120313DE
:100F4000B8000A128A15A2250A128A110A128A15F5
:100F500081250A128A110A128A15A2250A128A11FB
:100F6000D0300A128A15B4250A128A110A128A157B
:100F7000A2250A128A118312031338080A128A154D
:100F8000B4250A128A110A128A15A2250A128A1198
:100F90000A128A1579250A128A110A128A15A225BF
:100FA0000A128A11D1300A128A15B4250A128A113E
:100FB0000A128A15A2250A128A110A128A15AB256D
:100FC0000A128A1183120313B7003708831603131A
:100FD000A6000A128A15A2250A128A110A128A117B
:100FE000F7270A128A110A128A1589250800831622
:100FF00003139116111683128C1DFB2F8C11080000
:1010000008308A000408840A82070034013400345E
:101010000A34003464340034E834033410342734A0
:1010200001340034103400340034013400341034FE
:10103000253475342634253475342634323430342E
:1010400025343034323458342D342534303432346D
:1010500058342D3425343034323458342034253447
:101060003034323458343A3425343034323458340D
:101070003A34253430343234583400343034313456
:101080003234333434343534363437343834393414
:1010900041344234433444344534463400340A3411
:0810A0000D3400340A34003461
:101ACE0001341C34F000831203130C1E6A2D7008AF
:101ADE009900080083120313B6000C1E742D3608ED
:101AEE009900080083160313911483128C1D7C2D0C
:101AFE008C11080083160313111483128C1D842D70
:101B0E008C11080083160313111583128C1D8C2D56
:101B1E008C11080064008001840A04060319003445
:101B2E000406922D831203130C13831603130C1742
:101B3E008B170B1708008316031311081F39031D8B
:101B4E00A22D141D0800A22D8316031391158312C6
:101B5E008C1DAE2D8C111308080083120313B600D2
:101B6E00360893008C1DB92D8C11831603131108A2
:101B7E0008008316031381120112811101158114BD
:101B8E0001140B118B168B170B170800F100F001C7
:101B9E003A3071020318D92D30307102031CD92D41
:101BAE00F001F00A700C0800831603130C12831256
:101BBE0003130C12831603138C16831203138C1249
:101BCE000B178B170800831203131F1483160313AE
:101BDE009F179F111F159F101F141F13831203139E
:101BEE009F171F13080083120313B700B6013A3074
:101BFE0037020318082E30303702031C082EB601A8
:101C0E00B60A360C08008316031398131813981689
:101C1E0018121815831203139817181318168130FB
:101C2E0083160313990008008316031307168715EE
:101C3E0031309300831203138C1183160313940116
:101C4E00941714138312031394131413941214126F
:101C5E00941514119410141094160800F2007208C2
:101C6E00F1007108F3007008840083130008F1007E
:101C7E007308840071088317800000080319080098
:101C8E000130F1007108F3070130F1007108F0071F
:101C9E003A2EF401F501701C5A2E7208F40703183F
:101CAE00F50A7308F50701300310F20DF30DFF3E30
:101CBE00031D5B2E01300310F10CF00CFF3E031DD3
:101CCE00622E70087104031D522E7508F1007408FF
:101CDE00F000080083120313BA01BB01361C7D2EDF
:101CEE003808BA070318BB0A3908BB0701300310BE
:101CFE00B80DB90DFF3E031D7E2E01300310B70C3B
:101D0E00B60CFF3E031D852E36083704031D752EB7
:101D1E003B08B7003A08B6000800780879040319A2
:101D2E00C12EFD01FD0AF91BA82E01300310F80D7E
:101D3E00F90DFF3E031D9D2E0130FC007C08FD07B2
:101D4E009A2E79087B02031DAE2E78087A02031CA8
:101D5E00B62E7808FA027908031CFB03FB02013049
:101D6E000310F90CF80CFF3E031DB72E0130FD02D7
:101D7E00031DA82E7B08F9007A08F80008008312CC
:101D8E0003133E083F040319F52EC301C30ABF1BFC
:101D9E00DC2E01300310BE0DBF0DFF3E031DD12EF4
:101DAE000130C2004208C307CE2E3F084102031D78
:101DBE00E22E3E084002031CEA2E3E08C0023F08F7
:101DCE00031CC103C10201300310BF0CBE0CFF3E49
:101DDE00031DEB2E0130C302031DDC2E4108BF0094
:101DEE004008BE000800F501F601700871040319E1
:101DFE00312FF701F70AF11B102F01300310F00DF0
:101E0E00F10DFF3E031D052F0130F4007408F70796
:101E1E00022F01300310F50DF60DFF3E031D112F9D
:101E2E0071087302031D1D2F70087202031C262FEA
:101E3E007008F2027108031CF303F30275140130EB
:101E4E000310F10CF00CFF3E031D272F0130F7029B
:101E5E00031D102F7608F1007508F000080083129C
:101E6E000313BB01BC013608370403196F2FBD01E4
:101E7E00BD0AB71B4E2F01300310B60DB70DFF3E36
:101E8E00031D432F0130BA003A08BD07402F013021
:101E9E000310BB0DBC0DFF3E031D4F2F370839023B
:101EAE00031D5B2F36083802031C642F3608B80258
:101EBE003708031CB903B9023B1401300310B70CE9
:101ECE00B60CFF3E031D652F0130BD02031D4E2FC4
:101EDE003C08B7003B08B600080083120313B60097
:101EEE003608031D7E2F9F121F129F110800360306
:101EFE00031D852F9F121F129F15080002303606F4
:101F0E00031D8D2F9F121F169F11080003303606DA
:101F1E00031D952F9F121F169F15080004303606BD
:101F2E00031D9D2F9F161F129F11080005303606A8
:101F3E00031DA52F9F161F129F150800063036068B
:101F4E00031DAD2F9F161F169F1108000730360672
:101F5E00031D08009F161F169F150800F601F31F9C
:101F6E00BF2FF209F309F20A0319F30AF601F60A72
:101F7E00F11FC62FF009F109F00A0319F10A7008D2
:101F8E0071040319F32FF501F50AF11BDA2F013055
:101F9E000310F00DF10DFF3E031DCF2F0130F400A5
:101FAE007408F507CC2F71087302031DE02F70081B
:101FBE007202031CE82F7008F2027108031CF3036F
:101FCE00F30201300310F10CF00CFF3E031DE92F5C
:101FDE000130F502031DDA2F76080319FB2FF209E3
:101FEE00F309F20A0319F30A7308F1007208F000FC
:021FFE000800D9
:02400E003AFF77
:00000001FF
