:040000000BEF00F012
:100008004A82FACF1FF0FBCF20F015ED08F080EF01
:020018000AF0EC
:100800000001000A006400E8031027010010000046
:100810000100100A0A0D4C6574205468652043617C
:10082000726E61676520426567696E2C206E6F7716
:10083000210A0A000A0D4C656974757261205365BE
:1008400067756E646F3A205B2025303258205D005A
:100850000A0D4C656974757261204D696E75746F0F
:100860003A205B2025303258205D000A0D4C656926
:100870007475726120486F72613A205B20253032B6
:1008800058205D000A0A0D77726974655F525443FF
:100890005F49326328290A0A003031323334353651
:1008A000373839414243444546000A0D526567696D
:1008B0007374726F7520257569000A0D0A0D0A0D93
:1008C00000006E0E0001756F000E0001766F87D17B
:1008D000250E00017D19D8B405D000017D5150ECE2
:1008E0000BF07DD1000E00017C6F000E7B6F000EBF
:1008F00000017A6F05D000017A8500016C4B6D2BE9
:100900006CC0F6FF6DC0F7FF0800F550300AD8B490
:10091000F2D76CC0F6FF6DC0F7FF0800F550CFECC2
:100920000AF0D8A048D0000E00017C6F000E7B6F4B
:100930007BC060F07CC061F0000E0001636F0A0EA6
:10094000626F9DEC0AF060C07BF061C07CF0D00E5D
:100950000001706FFF0E0001716F6CC0F6FF6DC07B
:10096000F7FF0800F5500001726F736B00017051C2
:1009700000017227000171510001732300017251BF
:1009800000017B270001735100017C2300016C4BA7
:100990006D2B6CC0F6FF6DC0F7FF0800F550CFEC73
:1009A0000AF0D8A008D0C4D700017A8F1DD0C00E9D
:1009B00000017A1319D06CC0F6FF6DC0F7FF00017B
:1009C0006C4B6D2B0800F5CF7DF000017D51000AC6
:1009D000D8B41200580AD8B4E7D72D0AD8B4E7D74C
:1009E0000D0AD8B4E1D7FBD075C0D9FF76C0DAFFC5
:1009F000DECF78F0DDCF79F0020E00017527000E12
:100A000076233CD0010E00017D6F050E00017D199B
:100A1000D8B43DD000017D51020D010EF324F66ED5
:100A2000080EF420F76E0900F5500001785D09000A
:100A3000F55000017959D8A02AD000017D2BE5D7C7
:100A4000010E00017D6F040E00017D19D8B41FD086
:100A500000017D51020D0B0EF324F66E080EF420FA
:100A6000F76E0900F5500001785D0900F5500001AE
:100A70007959D8A00CD000017D2BE5D700017A511F
:100A8000C00B800AD8B4DCD7400AD8B4BBD7800EDC
:100A900000017DBF7F0E0001706F00017B510001DE
:100AA0007D5D00017C51800A00017059D8B00BD0E7
:100AB00000017D5100017B5F000E00017DBFFF0E34
:100AC00000017C5B05D0000E00017C6F000E7B6F87
:100AD00000017AA50ED000017B5100017C11D8B431
:100AE0001BD0300E50EC0BF000017B07D8A07C0728
:100AF000F2D700017B5100017C11D8B40DD0200E3B
:100B000050EC0BF000017B07D8A07C0700017B5163
:100B100000017C11D8A4F3D77DC077F05AD0000132
:100B20007751020D010EF324F66E080EF420F76ED5
:100B30000900F5CF62F00A00F5CF63F078C060F0ED
:100B400079C061F034EC09F060C067F061C068F012
:100B5000000E00016A6F0A0E696FDEEC09F00001F9
:100B60006751300F00017D6F30D078C060F079C0E0
:100B700061F000017751020D0B0EF324F66E080EA2
:100B8000F420F76E0900F5CF62F00A00F5CF63F0AC
:100B900034EC09F0000160510F0B0001746F00018B
:100BA0007451010D990EF324F66E080EF420F76EC1
:100BB0000800F5CF7DF009D000017A51C00B800A02
:100BC000D8B4D3D7400AD8B4AAD700017D5150EC8D
:100BD0000BF00001770700017729D8A4EDD76CC08E
:100BE000F6FF6DC0F7FF00016C4B6D2B0800F5CFD1
:100BF0007DF000017D51D8B412006AD60F0E146E3C
:100C0000000E156E41D1250E1C18D8B404D01C500E
:100C10006AEC0BF039D1000E1B6E000E1A6E000E3E
:100C2000176E03D017840D4A0E2A0DC0F6FF0EC0B2
:100C3000F7FF0800F550300AD8B4F4D70DC0F6FF1E
:100C40000EC0F7FF0800F55008EC0BF0D8A038D024
:100C5000000E1B6E000E1A6E1AC001F01BC002F0CF
:100C6000000E046E0A0E036EE4EC0AF001C01AF0E6
:100C700002C01BF0D00E0F6EFF0E106E0DC0F6FFFF
:100C80000EC0F7FF0800F550116E126A0F501126C2
:100C90001050122211501A2612501B220D4A0E2AF1
:100CA0000DC0F6FF0EC0F7FF0800F55008EC0BF082
:100CB000D8A006D0D1D7178E1AD0C00E171217D0D1
:100CC0000DC0F6FF0EC0F7FF0D4A0E2A0800F5CF43
:100CD0001CF01C50000AD8B41200580AD8B4EBD744
:100CE0002D0AD8B4EAD70D0AD8B4E5D7CDD014C0B0
:100CF000D9FF15C0DAFFDECF18F0DDCF19F0020EF4
:100D00001426000E152230D0010E1C6E050E1C1884
:100D1000D8B432D01C50020D010EF324F66E080E2A
:100D2000F420F76E0900F550185C0900F5501958C9
:100D3000D8A022D01C2AEAD7010E1C6E040E1C1863
:100D4000D8B41AD01C50020D0B0EF324F66E080E08
:100D5000F420F76E0900F550185C0900F550195899
:100D6000D8A00AD01C2AEAD71750C00B800AD8B4E2
:100D7000E3D7400AD8B4C8D7800E1CBE7F0E0F6ED2
:100D80001A501C5C1B50800A0F58D8B007D01C505A
:100D90001A5E000E1CBEFF0E1B5A04D0000E1B6E06
:100DA000000E1A6E17A40BD01A501B10D8B415D011
:100DB000300E6AEC0BF01A06D8A01B06F5D71A50B5
:100DC0001B10D8B40AD0200E6AEC0BF01A06D8A07B
:100DD0001B061A501B10D8A4F6D71CC016F050D012
:100DE0001650020D010EF324F66E080EF420F76E75
:100DF0000900F5CF03F00A00F5CF04F018C001F0A8
:100E000019C002F00FEC0AF001C008F002C009F0AE
:100E1000000E0B6E0A0E0A6E5FEC0AF00850300FDF
:100E20001C6E2BD018C001F019C002F01650020D34
:100E30000B0EF324F66E080EF420F76E0900F5CFC2
:100E400003F00A00F5CF04F00FEC0AF001500F0B8D
:100E5000136E1350010D990EF324F66E080EF42054
:100E6000F76E0800F5CF1CF008D01750C00B800AB1
:100E7000D8B4D8D7400AD8B4B3D71C506AEC0BF01A
:100E800016061628D8A4F1D70DC0F6FF0EC0F7FF3E
:100E90000D4A0E2A0800F5CF1CF01C50D8B41200E1
:100EA000B2D617EC0BF07FEC0BF024EC0BF031EC2E
:100EB0000BF057EC0BF0F7EC0AF0010E00017F6F1E
:100EC00000017F51B1EC08F0C282840E00016C6F0A
:100ED000080E00016D6F61EC04F0000E0001816FDF
:100EE000000E806F000181BF08D00001815111E127
:100EF000640E0001805DD8B00CD0820E00017E6FC0
:100F0000DE0EE82EFED77E2FFCD70001804B812B12
:100F1000E9D7A8EC09F0130E00016C6F080E000170
:100F20006D6F61EC04F0000E0001836F000E826FA4
:100F3000000183BF08D00001835111E1640E00015C
:100F4000825DD8B00CD0820E00017E6FDE0EE82EDE
:100F5000FED77E2FFCD70001824B832BE9D7020EF0
:100F600038EC0AF06B0E00016C6F080E00016D6F1B
:100F700086C06EF000016F6B61EC04F0410E000161
:100F80007E6FEE0EE82EFED77E2FFCD700D0010E2E
:100F900038EC0AF0500E00016C6F080E00016D6F06
:100FA00086C06EF000016F6B61EC04F0410E000131
:100FB0007E6FEE0EE82EFED77E2FFCD700D0000EFF
:100FC00038EC0AF0340E00016C6F080E00016D6FF2
:100FD00086C06EF000016F6B61EC04F0410E000101
:100FE0007E6FEE0EE82EFED77E2FFCD700D0AA0E25
:100FF00000016C6F080E00016D6F84C06EF085C03B
:101000006FF061EC04F0410E00017E6FEE0EE82EF1
:10101000FED77E2FFCD700D0BA0E00016C6F080EF1
:1010200000016D6F61EC04F07ED70600E9CF21F07E
:10103000EACF22F0E1CF23F0E2CF24F0D9CF25F0A0
:10104000DACF26F0F3CF27F0F4CF28F0F6CF29F04F
:10105000F7CF2AF0F8CF2BF0F5CF2CF09EAA47D08F
:10106000ABB402D0ABA203D0AB984880AB88AECF74
:1010700049F00D0E4918D8A41DD02D50010D2E0E8B
:10108000F324D96E000EF420DA6E000EDF6E870EA8
:10109000016E000E026E2E0E036E000E046EB8EC92
:1010A0000AF0BE0E0D6E080E0E6EFEEC05F0000E80
:1010B0002D6E1DD0190E2D6016D02DC001F0026AC4
:1010C000000E046E190E036E70EC09F001502D6EC7
:1010D0002D50010D2E0EF324D96E000EF420DA6E81
:1010E00049C0DFFF2D2A190E2D18D8B42D2A9EAC29
:1010F0000DD0C4501E6E1D6AC3501D240001846FA4
:10110000000E1E200001856FC2829E9CF2A40BD0AF
:1011100048B202D0488201D0489248A202D08388C7
:1011200001D08398F2942CC0F5FF2BC0F8FF2AC0A1
:10113000F7FF29C0F6FF28C0F4FF27C0F3FF26C041
:10114000DAFF25C0D9FF24C0E2FF23C0E1FF22C09F
:10115000EAFF21C0E9FF20C0FBFF1FC0FAFF4A924F
:1011600011000001606F000160510001D8A405D09A
:10117000C29AC298C296C294120000016005D8A417
:1011800005D0C29AC298C296C2841200020E000113
:101190006019D8A405D0C29AC298C286C29412001F
:1011A000030E00016019D8A405D0C29AC298C28665
:1011B000C2841200040E00016019D8A405D0C29A9E
:1011C000C288C296C2941200050E00016019D8A40C
:1011D00005D0C29AC288C296C2841200060E0001CF
:1011E0006019D8A405D0C29AC288C286C2941200DF
:1011F000070E00016019D8A405D0C29AC288C28621
:10120000C2841200080E00016019D8A405D0C28A59
:10121000C298C296C2941200090E00016019D8A4A7
:1012200005D0C28AC298C296C28412000A0E00017A
:101230006019D8A405D0C28AC298C286C29412008E
:101240000B0E00016019D8A405D0C28AC298C286CC
:10125000C28412000C0E00016019D8A41200C28AC8
:10126000C288C296C2941200000E0001666F000E82
:10127000656F0001625100016311D8B42CD0010EDA
:101280000001646F06D00001D89062376337000117
:10129000642B000163AFF7D70001D890653766373C
:1012A000000162510001605D00016351000161595C
:1012B000D8A00AD0000162510001605F00016351B3
:1012C0000001615B000165810001D89063336233E6
:1012D0000001642FE1D765C060F066C061F01200C4
:1012E000000E066E02AE06D0016C021ED8B0022AB5
:1012F000010E066E04AE04D0036C041ED8B0042A9E
:1013000003500410D8B418D0010E056E04D0D89044
:1013100003360436052A04AEFAD70350015C0450A4
:101320000258D8A004D00350015E0450025AD8904D
:1013300004320332052EF1D70650D8B404D0016C24
:10134000021ED8B0022A01C001F002C002F0120051
:101350003DEC0BF075EC0BF03DEC0BF0D00E47ECD8
:101360000BF03DEC0BF0000E47EC0BF03DEC0BF0FE
:10137000000E47EC0BF03DEC0BF0080E47EC0BF0C9
:101380003DEC0BF0080E47EC0BF03DEC0BF0040EBF
:1013900047EC0BF03DEC0BF0170E47EC0BF03DEC7F
:1013A0000BF0040E47EC0BF03DEC0BF0130E47EC8A
:1013B0000BF03DEC0BF070EC0BF0120000016951EA
:1013C00000016A11D8B426D0010E00016B6F06D05F
:1013D0000001D89069376A3700016B2B00016AAFB2
:1013E000F7D7000169510001675D00016A510001F2
:1013F0006859D8A008D0000169510001675F000159
:101400006A510001685B0001D8906A3369330001BA
:101410006B2FE7D767C067F068C068F01200000E56
:10142000066E000E056E03500410D8B41CD0010ED9
:10143000076E04D0D89003360436072A04AEFAD7D4
:10144000D890053606360350015C04500258D8A0E7
:1014500005D00350015E0450025A0580D890043232
:101460000332072EEDD705C001F006C002F01200CE
:101470000001616F3DEC0BF075EC0BF03DEC0BF0F7
:10148000D00E47EC0BF03DEC0BF00001615147EC46
:101490000BF03DEC0BF07AEC0BF03DEC0BF0D10EC9
:1014A00047EC0BF03DEC0BF064EC0BF00001866FA9
:1014B0003DEC0BF05EEC0BF070EC0BF012000A5000
:1014C0000B10D8B418D0010E0C6E04D0D8900A3688
:1014D0000B360C2A0BAEFAD70A50085C0B50095891
:1014E000D8A004D00A50085E0B50095AD8900B328D
:1014F0000A320C2EF1D708C008F009C009F012001A
:1015000000EE84F01D0EEE6AE806FDE1486A00EE8A
:101510002DF01B0EEE6AE806FDE1080EF66E170EC2
:10152000F76E000EF86E0900F5CF49F04A904A9226
:10153000000EF86E000151EF07F00001605100014C
:101540006203F3CF64F0F4CF65F000016051000155
:101550006303F3500001652700016151000162033C
:10156000F3500001652764C060F065C061F01200AF
:1015700001C005F002C006F004D0054A062A034A5D
:10158000042A03C0D9FF04C0DAFF05C0E1FF06C08A
:10159000E2FFDFCFE7FFE750D8B41200EED700013B
:1015A000626F000E0001616F3A0E0001626107D0A8
:1015B0002F0E0001626503D0010E0001616F61C052
:1015C00060F000016031120001500302F3CF05F01A
:1015D000F4CF06F001500402F35006260250030235
:1015E000F350062605C001F006C002F012009380F9
:1015F0009382310EC86E9E96000EC76EC78EC79C32
:10160000000EC66EC650F00B0809C66EC68A1200E0
:10161000036E000E026E3A0E036005D02F0E0364B7
:1016200002D0010E026E02C001F001301200D59A04
:10163000D598D596D59CD584D592D580F184F29451
:10164000F28AF28EF28C1200C280C08EC196C184E2
:10165000C192C180C09AC098C086C084C092C08028
:101660001200AC9CAC8AAC98AC84AB8EAB9CAB88C3
:10167000B896810EAF6EB89A1200C5CF60F01F0EFB
:1016800000016017D8A4F9D7C7A41200F6D700014B
:10169000606F60C0C9FF9EA6FED79E96C55012001F
:1016A0000001606F9EA8FED760C0ADFF12009D983C
:1016B0009E989D8A9E9AF28CF28E1200C58AC588E9
:1016C0009EA6FED79E961200C5869EA6FED79E9623
:1016D000C9501200016E9EA8FED701C0ADFF1200D6
:1016E000C5849EA6FED79E961200C5809EA6FED7F4
:1016F0009E961200C5829EA6FED79E9612009E9CC4
:0A1700009D8CF28EF28C120058004E
:020000040020DA
:08000000FFFFFFFFFFFFFFFF00
:020000040030CA
:0E000000000C191EFF8080FF0FC00FE00F40A4
:00000001FF
